{"contracts/Verifier.sol":{"Verifier":{"abi":[{"inputs":[{"internalType":"uint256[2]","name":"_pA","type":"uint256[2]"},{"internalType":"uint256[2][2]","name":"_pB","type":"uint256[2][2]"},{"internalType":"uint256[2]","name":"_pC","type":"uint256[2]"},{"internalType":"uint256[4]","name":"_pubSignals","type":"uint256[4]"}],"name":"verifyProof","outputs":[{"internalType":"bool","name":"","type":"bool"}],"stateMutability":"view","type":"function"}],"evm":{"bytecode":{"linkReferences":{},"object":"6080604052348015600f57600080fd5b506107178061001f6000396000f3fe608060405234801561001057600080fd5b506004361061002b5760003560e01c80635fe8c13b14610030575b600080fd5b61004a60048036038101906100459190610642565b610060565b60405161005791906106c6565b60405180910390f35b600061057c565b7f30644e72e131a029b85045b68181585d2833e84879b9709143e1f593f00000018110610098576000805260206000f35b50565b600060405183815284602082015285604082015260408160608360076107d05a03fa9150816100ce576000805260206000f35b825160408201526020830151606082015260408360808360066107d05a03fa9150816100fe576000805260206000f35b505050505050565b600060808601600087017f30337e39fd45c7d7b25818badc2fb9ad9fa4a719063794806f8b3de787eec1cf81527f2707f60d2fb98a85c5f26e0669a4dd558c9f8062ea6585ebacc58dc7bfa6c67360208201526101a960008801357f0b82a726bd0c80087a733c94799c3867b5370c4edd443d2602e242a2abd6d24a7f0ebd67f0db9e22a8478dcae208c59771523fbc2ec4f200a5759f174cfded5f4a8461009b565b6101f960208801357f11999aa8df6ceeaa489b61df06323dec2008f577d2e56a0dd9fcac214f37aff87f121fe2472516d578404aa6cb92134f45d82a12dd0e71f7018ed837a5055673438461009b565b61024960408801357f27822f6fd6a389e96eff4805c35d95a989acddc12b8b98fb875d7f041f8c81b97f0bc907ed7322f216650a83585aae0189f11405d20467875d74f0cf91952eb0248461009b565b61029860608801357e19ae49bfe6817c2026aedf9635f40ad9a55c4cd71c5b7f9426a1f69dff1f9c7f28fa15e904dac0d498866a95e854eb69dc768bab2fc3f7569e0d601f5aed5b088461009b565b833582527f30644e72e131a029b85045b68181585d97816a916871ca8d3c208c16d87cfd4760208501357f30644e72e131a029b85045b68181585d97816a916871ca8d3c208c16d87cfd4703066020830152843560408301526020850135606083015260408501356080830152606085013560a08301527f217630762ea1fc4043118e98b124571deb4fa9156b8543b21116f37bfdc3f31960c08301527f1e6453f66982c8718fc1b12c6ada1b31ea2b9462ea541d8c1123cae957dade6760e08301527f041458e554b8fcafc9448133be9a10f04d0722fe81bf22be002c2350b8b11fbf6101008301527f1ca8f9f60039077a66e52a07bc2ada4499d276348cfec9091a4fd19f73dad8eb6101208301527f1d77a130899875009feaf60faf3297dd650cff2bd32a2a1707edce01b80ec7526101408301527f023bc5cfea30f112bcc43ca85e72d967f2f93b2142c546c4bb15eae91033e976610160830152600088015161018083015260206000018801516101a08301527f198e9393920d483a7260bfb731fb5d25f1aa493335a9e71297e485b7aef312c26101c08301527f1800deef121f1e76426a00665e5c4479674322d4f75edadd46debd5cd992f6ed6101e08301527f090689d0585ff075ec9e99ad690c3395bc4b313370b38ef355acdadcd122975b6102008301527f12c85ea5db8c6deb4aab71808dcb408fe3d1e7690c43d37b4ce6cc0166fa7daa610220830152853561024083015260208601356102608301527f0d4e04da63740fd1d1e493f18f6bd0621b1fdd33ede67725710dc0a0354638af6102808301527f1c794b4312db86f0cb75846db023933e240e208792a97a2f349272c93f135ee96102a08301527f0cceaf50f6f0d3a38f54f63d36ca952b8d4ace1f6c383119dc32488eb9622eac6102c08301527f27df9e522ac3537521add2dc9ee2fa75c439e2fdb29b340844595a58dfebfc2b6102e08301526020826103008460086107d05a03fa82518116935050505095945050505050565b60405161038081016040526105946000840135610067565b6105a16020840135610067565b6105ae6040840135610067565b6105bb6060840135610067565b6105c8818486888a610106565b8060005260206000f35b600080fd5b600080fd5b6000819050826020600202820111156105f8576105f76105d7565b5b92915050565b60008190508260406002028201111561061a576106196105d7565b5b92915050565b60008190508260206004028201111561063c5761063b6105d7565b5b92915050565b600080600080610180858703121561065d5761065c6105d2565b5b600061066b878288016105dc565b945050604061067c878288016105fe565b93505060c061068d878288016105dc565b92505061010061069f87828801610620565b91505092959194509250565b60008115159050919050565b6106c0816106ab565b82525050565b60006020820190506106db60008301846106b7565b9291505056fea2646970667358221220e583d20e70c9d75778c406c29daef3added0c68723f33a701e0f0edadf49eecb64736f6c634300081c0033","opcodes":"PUSH1 0x80 PUSH1 0x40 MSTORE CALLVALUE DUP1 ISZERO PUSH1 0xF JUMPI PUSH1 0x0 DUP1 REVERT JUMPDEST POP PUSH2 0x717 DUP1 PUSH2 0x1F PUSH1 0x0 CODECOPY PUSH1 0x0 RETURN INVALID PUSH1 0x80 PUSH1 0x40 MSTORE CALLVALUE DUP1 ISZERO PUSH2 0x10 JUMPI PUSH1 0x0 DUP1 REVERT JUMPDEST POP PUSH1 0x4 CALLDATASIZE LT PUSH2 0x2B JUMPI PUSH1 0x0 CALLDATALOAD PUSH1 0xE0 SHR DUP1 PUSH4 0x5FE8C13B EQ PUSH2 0x30 JUMPI JUMPDEST PUSH1 0x0 DUP1 REVERT JUMPDEST PUSH2 0x4A PUSH1 0x4 DUP1 CALLDATASIZE SUB DUP2 ADD SWAP1 PUSH2 0x45 SWAP2 SWAP1 PUSH2 0x642 JUMP JUMPDEST PUSH2 0x60 JUMP JUMPDEST PUSH1 0x40 MLOAD PUSH2 0x57 SWAP2 SWAP1 PUSH2 0x6C6 JUMP JUMPDEST PUSH1 0x40 MLOAD DUP1 SWAP2 SUB SWAP1 RETURN JUMPDEST PUSH1 0x0 PUSH2 0x57C JUMP JUMPDEST PUSH32 0x30644E72E131A029B85045B68181585D2833E84879B9709143E1F593F0000001 DUP2 LT PUSH2 0x98 JUMPI PUSH1 0x0 DUP1 MSTORE PUSH1 0x20 PUSH1 0x0 RETURN JUMPDEST POP JUMP JUMPDEST PUSH1 0x0 PUSH1 0x40 MLOAD DUP4 DUP2 MSTORE DUP5 PUSH1 0x20 DUP3 ADD MSTORE DUP6 PUSH1 0x40 DUP3 ADD MSTORE PUSH1 0x40 DUP2 PUSH1 0x60 DUP4 PUSH1 0x7 PUSH2 0x7D0 GAS SUB STATICCALL SWAP2 POP DUP2 PUSH2 0xCE JUMPI PUSH1 0x0 DUP1 MSTORE PUSH1 0x20 PUSH1 0x0 RETURN JUMPDEST DUP3 MLOAD PUSH1 0x40 DUP3 ADD MSTORE PUSH1 0x20 DUP4 ADD MLOAD PUSH1 0x60 DUP3 ADD MSTORE PUSH1 0x40 DUP4 PUSH1 0x80 DUP4 PUSH1 0x6 PUSH2 0x7D0 GAS SUB STATICCALL SWAP2 POP DUP2 PUSH2 0xFE JUMPI PUSH1 0x0 DUP1 MSTORE PUSH1 0x20 PUSH1 0x0 RETURN JUMPDEST POP POP POP POP POP POP JUMP JUMPDEST PUSH1 0x0 PUSH1 0x80 DUP7 ADD PUSH1 0x0 DUP8 ADD PUSH32 0x30337E39FD45C7D7B25818BADC2FB9AD9FA4A719063794806F8B3DE787EEC1CF DUP2 MSTORE PUSH32 0x2707F60D2FB98A85C5F26E0669A4DD558C9F8062EA6585EBACC58DC7BFA6C673 PUSH1 0x20 DUP3 ADD MSTORE PUSH2 0x1A9 PUSH1 0x0 DUP9 ADD CALLDATALOAD PUSH32 0xB82A726BD0C80087A733C94799C3867B5370C4EDD443D2602E242A2ABD6D24A PUSH32 0xEBD67F0DB9E22A8478DCAE208C59771523FBC2EC4F200A5759F174CFDED5F4A DUP5 PUSH2 0x9B JUMP JUMPDEST PUSH2 0x1F9 PUSH1 0x20 DUP9 ADD CALLDATALOAD PUSH32 0x11999AA8DF6CEEAA489B61DF06323DEC2008F577D2E56A0DD9FCAC214F37AFF8 PUSH32 0x121FE2472516D578404AA6CB92134F45D82A12DD0E71F7018ED837A505567343 DUP5 PUSH2 0x9B JUMP JUMPDEST PUSH2 0x249 PUSH1 0x40 DUP9 ADD CALLDATALOAD PUSH32 0x27822F6FD6A389E96EFF4805C35D95A989ACDDC12B8B98FB875D7F041F8C81B9 PUSH32 0xBC907ED7322F216650A83585AAE0189F11405D20467875D74F0CF91952EB024 DUP5 PUSH2 0x9B JUMP JUMPDEST PUSH2 0x298 PUSH1 0x60 DUP9 ADD CALLDATALOAD PUSH31 0x19AE49BFE6817C2026AEDF9635F40AD9A55C4CD71C5B7F9426A1F69DFF1F9C PUSH32 0x28FA15E904DAC0D498866A95E854EB69DC768BAB2FC3F7569E0D601F5AED5B08 DUP5 PUSH2 0x9B JUMP JUMPDEST DUP4 CALLDATALOAD DUP3 MSTORE PUSH32 0x30644E72E131A029B85045B68181585D97816A916871CA8D3C208C16D87CFD47 PUSH1 0x20 DUP6 ADD CALLDATALOAD PUSH32 0x30644E72E131A029B85045B68181585D97816A916871CA8D3C208C16D87CFD47 SUB MOD PUSH1 0x20 DUP4 ADD MSTORE DUP5 CALLDATALOAD PUSH1 0x40 DUP4 ADD MSTORE PUSH1 0x20 DUP6 ADD CALLDATALOAD PUSH1 0x60 DUP4 ADD MSTORE PUSH1 0x40 DUP6 ADD CALLDATALOAD PUSH1 0x80 DUP4 ADD MSTORE PUSH1 0x60 DUP6 ADD CALLDATALOAD PUSH1 0xA0 DUP4 ADD MSTORE PUSH32 0x217630762EA1FC4043118E98B124571DEB4FA9156B8543B21116F37BFDC3F319 PUSH1 0xC0 DUP4 ADD MSTORE PUSH32 0x1E6453F66982C8718FC1B12C6ADA1B31EA2B9462EA541D8C1123CAE957DADE67 PUSH1 0xE0 DUP4 ADD MSTORE PUSH32 0x41458E554B8FCAFC9448133BE9A10F04D0722FE81BF22BE002C2350B8B11FBF PUSH2 0x100 DUP4 ADD MSTORE PUSH32 0x1CA8F9F60039077A66E52A07BC2ADA4499D276348CFEC9091A4FD19F73DAD8EB PUSH2 0x120 DUP4 ADD MSTORE PUSH32 0x1D77A130899875009FEAF60FAF3297DD650CFF2BD32A2A1707EDCE01B80EC752 PUSH2 0x140 DUP4 ADD MSTORE PUSH32 0x23BC5CFEA30F112BCC43CA85E72D967F2F93B2142C546C4BB15EAE91033E976 PUSH2 0x160 DUP4 ADD MSTORE PUSH1 0x0 DUP9 ADD MLOAD PUSH2 0x180 DUP4 ADD MSTORE PUSH1 0x20 PUSH1 0x0 ADD DUP9 ADD MLOAD PUSH2 0x1A0 DUP4 ADD MSTORE PUSH32 0x198E9393920D483A7260BFB731FB5D25F1AA493335A9E71297E485B7AEF312C2 PUSH2 0x1C0 DUP4 ADD MSTORE PUSH32 0x1800DEEF121F1E76426A00665E5C4479674322D4F75EDADD46DEBD5CD992F6ED PUSH2 0x1E0 DUP4 ADD MSTORE PUSH32 0x90689D0585FF075EC9E99AD690C3395BC4B313370B38EF355ACDADCD122975B PUSH2 0x200 DUP4 ADD MSTORE PUSH32 0x12C85EA5DB8C6DEB4AAB71808DCB408FE3D1E7690C43D37B4CE6CC0166FA7DAA PUSH2 0x220 DUP4 ADD MSTORE DUP6 CALLDATALOAD PUSH2 0x240 DUP4 ADD MSTORE PUSH1 0x20 DUP7 ADD CALLDATALOAD PUSH2 0x260 DUP4 ADD MSTORE PUSH32 0xD4E04DA63740FD1D1E493F18F6BD0621B1FDD33EDE67725710DC0A0354638AF PUSH2 0x280 DUP4 ADD MSTORE PUSH32 0x1C794B4312DB86F0CB75846DB023933E240E208792A97A2F349272C93F135EE9 PUSH2 0x2A0 DUP4 ADD MSTORE PUSH32 0xCCEAF50F6F0D3A38F54F63D36CA952B8D4ACE1F6C383119DC32488EB9622EAC PUSH2 0x2C0 DUP4 ADD MSTORE PUSH32 0x27DF9E522AC3537521ADD2DC9EE2FA75C439E2FDB29B340844595A58DFEBFC2B PUSH2 0x2E0 DUP4 ADD MSTORE PUSH1 0x20 DUP3 PUSH2 0x300 DUP5 PUSH1 0x8 PUSH2 0x7D0 GAS SUB STATICCALL DUP3 MLOAD DUP2 AND SWAP4 POP POP POP POP SWAP6 SWAP5 POP POP POP POP POP JUMP JUMPDEST PUSH1 0x40 MLOAD PUSH2 0x380 DUP2 ADD PUSH1 0x40 MSTORE PUSH2 0x594 PUSH1 0x0 DUP5 ADD CALLDATALOAD PUSH2 0x67 JUMP JUMPDEST PUSH2 0x5A1 PUSH1 0x20 DUP5 ADD CALLDATALOAD PUSH2 0x67 JUMP JUMPDEST PUSH2 0x5AE PUSH1 0x40 DUP5 ADD CALLDATALOAD PUSH2 0x67 JUMP JUMPDEST PUSH2 0x5BB PUSH1 0x60 DUP5 ADD CALLDATALOAD PUSH2 0x67 JUMP JUMPDEST PUSH2 0x5C8 DUP2 DUP5 DUP7 DUP9 DUP11 PUSH2 0x106 JUMP JUMPDEST DUP1 PUSH1 0x0 MSTORE PUSH1 0x20 PUSH1 0x0 RETURN JUMPDEST PUSH1 0x0 DUP1 REVERT JUMPDEST PUSH1 0x0 DUP1 REVERT JUMPDEST PUSH1 0x0 DUP2 SWAP1 POP DUP3 PUSH1 0x20 PUSH1 0x2 MUL DUP3 ADD GT ISZERO PUSH2 0x5F8 JUMPI PUSH2 0x5F7 PUSH2 0x5D7 JUMP JUMPDEST JUMPDEST SWAP3 SWAP2 POP POP JUMP JUMPDEST PUSH1 0x0 DUP2 SWAP1 POP DUP3 PUSH1 0x40 PUSH1 0x2 MUL DUP3 ADD GT ISZERO PUSH2 0x61A JUMPI PUSH2 0x619 PUSH2 0x5D7 JUMP JUMPDEST JUMPDEST SWAP3 SWAP2 POP POP JUMP JUMPDEST PUSH1 0x0 DUP2 SWAP1 POP DUP3 PUSH1 0x20 PUSH1 0x4 MUL DUP3 ADD GT ISZERO PUSH2 0x63C JUMPI PUSH2 0x63B PUSH2 0x5D7 JUMP JUMPDEST JUMPDEST SWAP3 SWAP2 POP POP JUMP JUMPDEST PUSH1 0x0 DUP1 PUSH1 0x0 DUP1 PUSH2 0x180 DUP6 DUP8 SUB SLT ISZERO PUSH2 0x65D JUMPI PUSH2 0x65C PUSH2 0x5D2 JUMP JUMPDEST JUMPDEST PUSH1 0x0 PUSH2 0x66B DUP8 DUP3 DUP9 ADD PUSH2 0x5DC JUMP JUMPDEST SWAP5 POP POP PUSH1 0x40 PUSH2 0x67C DUP8 DUP3 DUP9 ADD PUSH2 0x5FE JUMP JUMPDEST SWAP4 POP POP PUSH1 0xC0 PUSH2 0x68D DUP8 DUP3 DUP9 ADD PUSH2 0x5DC JUMP JUMPDEST SWAP3 POP POP PUSH2 0x100 PUSH2 0x69F DUP8 DUP3 DUP9 ADD PUSH2 0x620 JUMP JUMPDEST SWAP2 POP POP SWAP3 SWAP6 SWAP2 SWAP5 POP SWAP3 POP JUMP JUMPDEST PUSH1 0x0 DUP2 ISZERO ISZERO SWAP1 POP SWAP2 SWAP1 POP JUMP JUMPDEST PUSH2 0x6C0 DUP2 PUSH2 0x6AB JUMP JUMPDEST DUP3 MSTORE POP POP JUMP JUMPDEST PUSH1 0x0 PUSH1 0x20 DUP3 ADD SWAP1 POP PUSH2 0x6DB PUSH1 0x0 DUP4 ADD DUP5 PUSH2 0x6B7 JUMP JUMPDEST SWAP3 SWAP2 POP POP JUMP INVALID LOG2 PUSH5 0x6970667358 0x22 SLT KECCAK256 0xE5 DUP4 0xD2 0xE PUSH17 0xC9D75778C406C29DAEF3ADDED0C68723F3 GASPRICE PUSH17 0x1E0F0EDADF49EECB64736F6C634300081C STOP CALLER "},"methodIdentifiers":{"verifyProof(uint256[2],uint256[2][2],uint256[2],uint256[4])":"5fe8c13b"}}}}}