{
  "_format": "hh-sol-artifact-1",
  "contractName": "ElectionFactory",
  "sourceName": "contracts/ElectionFactory.sol",
  "abi": [
    {
      "inputs": [],
      "stateMutability": "nonpayable",
      "type": "constructor"
    },
    {
      "inputs": [
        {
          "internalType": "address",
          "name": "owner",
          "type": "address"
        }
      ],
      "name": "OwnableInvalidOwner",
      "type": "error"
    },
    {
      "inputs": [
        {
          "internalType": "address",
          "name": "account",
          "type": "address"
        }
      ],
      "name": "OwnableUnauthorizedAccount",
      "type": "error"
    },
    {
      "anonymous": false,
      "inputs": [
        {
          "indexed": true,
          "internalType": "address",
          "name": "electionAddress",
          "type": "address"
        },
        {
          "indexed": false,
          "internalType": "string",
          "name": "name",
          "type": "string"
        },
        {
          "indexed": true,
          "internalType": "address",
          "name": "creator",
          "type": "address"
        },
        {
          "indexed": false,
          "internalType": "uint256",
          "name": "index",
          "type": "uint256"
        }
      ],
      "name": "ElectionCreated",
      "type": "event"
    },
    {
      "anonymous": false,
      "inputs": [
        {
          "indexed": true,
          "internalType": "address",
          "name": "previousOwner",
          "type": "address"
        },
        {
          "indexed": true,
          "internalType": "address",
          "name": "newOwner",
          "type": "address"
        }
      ],
      "name": "OwnershipTransferred",
      "type": "event"
    },
    {
      "inputs": [],
      "name": "allElections",
      "outputs": [
        {
          "internalType": "address[]",
          "name": "",
          "type": "address[]"
        }
      ],
      "stateMutability": "view",
      "type": "function"
    },
    {
      "inputs": [
        {
          "internalType": "string",
          "name": "_name",
          "type": "string"
        }
      ],
      "name": "createElection",
      "outputs": [
        {
          "internalType": "address",
          "name": "addr",
          "type": "address"
        }
      ],
      "stateMutability": "nonpayable",
      "type": "function"
    },
    {
      "inputs": [
        {
          "internalType": "uint256",
          "name": "index",
          "type": "uint256"
        }
      ],
      "name": "getElection",
      "outputs": [
        {
          "internalType": "address",
          "name": "",
          "type": "address"
        }
      ],
      "stateMutability": "view",
      "type": "function"
    },
    {
      "inputs": [],
      "name": "getElectionCount",
      "outputs": [
        {
          "internalType": "uint256",
          "name": "",
          "type": "uint256"
        }
      ],
      "stateMutability": "view",
      "type": "function"
    },
    {
      "inputs": [],
      "name": "owner",
      "outputs": [
        {
          "internalType": "address",
          "name": "",
          "type": "address"
        }
      ],
      "stateMutability": "view",
      "type": "function"
    },
    {
      "inputs": [],
      "name": "renounceOwnership",
      "outputs": [],
      "stateMutability": "nonpayable",
      "type": "function"
    },
    {
      "inputs": [
        {
          "internalType": "address",
          "name": "newOwner",
          "type": "address"
        }
      ],
      "name": "transferOwnership",
      "outputs": [],
      "stateMutability": "nonpayable",
      "type": "function"
    }
  ],
  "bytecode": "0x608060405234801561001057600080fd5b5033600073ffffffffffffffffffffffffffffffffffffffff168173ffffffffffffffffffffffffffffffffffffffff16036100845760006040517f1e4fbdf700000000000000000000000000000000000000000000000000000000815260040161007b919061019e565b60405180910390fd5b6100938161009960201b60201c565b506101b9565b60008060009054906101000a900473ffffffffffffffffffffffffffffffffffffffff169050816000806101000a81548173ffffffffffffffffffffffffffffffffffffffff021916908373ffffffffffffffffffffffffffffffffffffffff1602179055508173ffffffffffffffffffffffffffffffffffffffff168173ffffffffffffffffffffffffffffffffffffffff167f8be0079c531659141344cd1fd0a4f28419497f9722a3daafe3b4186f6b6457e060405160405180910390a35050565b600073ffffffffffffffffffffffffffffffffffffffff82169050919050565b60006101888261015d565b9050919050565b6101988161017d565b82525050565b60006020820190506101b3600083018461018f565b92915050565b6145c7806101c86000396000f3fe608060405234801561001057600080fd5b506004361061007d5760003560e01c8063715018a61161005b578063715018a6146100ee5780638da5cb5b146100f85780639d71077714610116578063f2fde38b146101465761007d565b806315cf4a5f14610082578063213785a0146100b2578063379b721d146100d0575b600080fd5b61009c600480360381019061009791906107dd565b610162565b6040516100a99190610867565b60405180910390f35b6100ba610336565b6040516100c7919061089b565b60405180910390f35b6100d8610343565b6040516100e59190610974565b60405180910390f35b6100f66103d1565b005b6101006103e5565b60405161010d9190610867565b60405180910390f35b610130600480360381019061012b91906109c2565b61040e565b60405161013d9190610867565b60405180910390f35b610160600480360381019061015b9190610a1b565b61049d565b005b600061016c610523565b60008251116101b0576040517f08c379a00000000000000000000000000000000000000000000000000000000081526004016101a790610aa5565b60405180910390fd5b6000826040516101bf90610676565b6101c99190610b33565b604051809103906000f0801580156101e5573d6000803e3d6000fd5b5090508073ffffffffffffffffffffffffffffffffffffffff1663f2fde38b336040518263ffffffff1660e01b81526004016102219190610867565b600060405180830381600087803b15801561023b57600080fd5b505af115801561024f573d6000803e3d6000fd5b505050506001819080600181540180825580915050600190039060005260206000200160009091909190916101000a81548173ffffffffffffffffffffffffffffffffffffffff021916908373ffffffffffffffffffffffffffffffffffffffff1602179055503373ffffffffffffffffffffffffffffffffffffffff168173ffffffffffffffffffffffffffffffffffffffff167fbc8f0b6c4087dd29b21601bf629aed67ea6c507ecd27d5ebbaba2c30a48b8dbf85600180805490506103179190610b84565b604051610325929190610bb8565b60405180910390a380915050919050565b6000600180549050905090565b606060018054806020026020016040519081016040528092919081815260200182805480156103c757602002820191906000526020600020905b8160009054906101000a900473ffffffffffffffffffffffffffffffffffffffff1673ffffffffffffffffffffffffffffffffffffffff168152602001906001019080831161037d575b5050505050905090565b6103d9610523565b6103e360006105aa565b565b60008060009054906101000a900473ffffffffffffffffffffffffffffffffffffffff16905090565b60006001805490508210610457576040517f08c379a000000000000000000000000000000000000000000000000000000000815260040161044e90610c34565b60405180910390fd5b6001828154811061046b5761046a610c54565b5b9060005260206000200160009054906101000a900473ffffffffffffffffffffffffffffffffffffffff169050919050565b6104a5610523565b600073ffffffffffffffffffffffffffffffffffffffff168173ffffffffffffffffffffffffffffffffffffffff16036105175760006040517f1e4fbdf700000000000000000000000000000000000000000000000000000000815260040161050e9190610867565b60405180910390fd5b610520816105aa565b50565b61052b61066e565b73ffffffffffffffffffffffffffffffffffffffff166105496103e5565b73ffffffffffffffffffffffffffffffffffffffff16146105a85761056c61066e565b6040517f118cdaa700000000000000000000000000000000000000000000000000000000815260040161059f9190610867565b60405180910390fd5b565b60008060009054906101000a900473ffffffffffffffffffffffffffffffffffffffff169050816000806101000a81548173ffffffffffffffffffffffffffffffffffffffff021916908373ffffffffffffffffffffffffffffffffffffffff1602179055508173ffffffffffffffffffffffffffffffffffffffff168173ffffffffffffffffffffffffffffffffffffffff167f8be0079c531659141344cd1fd0a4f28419497f9722a3daafe3b4186f6b6457e060405160405180910390a35050565b600033905090565b61390e80610c8483390190565b6000604051905090565b600080fd5b600080fd5b600080fd5b600080fd5b6000601f19601f8301169050919050565b7f4e487b7100000000000000000000000000000000000000000000000000000000600052604160045260246000fd5b6106ea826106a1565b810181811067ffffffffffffffff82111715610709576107086106b2565b5b80604052505050565b600061071c610683565b905061072882826106e1565b919050565b600067ffffffffffffffff821115610748576107476106b2565b5b610751826106a1565b9050602081019050919050565b82818337600083830152505050565b600061078061077b8461072d565b610712565b90508281526020810184848401111561079c5761079b61069c565b5b6107a784828561075e565b509392505050565b600082601f8301126107c4576107c3610697565b5b81356107d484826020860161076d565b91505092915050565b6000602082840312156107f3576107f261068d565b5b600082013567ffffffffffffffff81111561081157610810610692565b5b61081d848285016107af565b91505092915050565b600073ffffffffffffffffffffffffffffffffffffffff82169050919050565b600061085182610826565b9050919050565b61086181610846565b82525050565b600060208201905061087c6000830184610858565b92915050565b6000819050919050565b61089581610882565b82525050565b60006020820190506108b0600083018461088c565b92915050565b600081519050919050565b600082825260208201905092915050565b6000819050602082019050919050565b6108eb81610846565b82525050565b60006108fd83836108e2565b60208301905092915050565b6000602082019050919050565b6000610921826108b6565b61092b81856108c1565b9350610936836108d2565b8060005b8381101561096757815161094e88826108f1565b975061095983610909565b92505060018101905061093a565b5085935050505092915050565b6000602082019050818103600083015261098e8184610916565b905092915050565b61099f81610882565b81146109aa57600080fd5b50565b6000813590506109bc81610996565b92915050565b6000602082840312156109d8576109d761068d565b5b60006109e6848285016109ad565b91505092915050565b6109f881610846565b8114610a0357600080fd5b50565b600081359050610a15816109ef565b92915050565b600060208284031215610a3157610a3061068d565b5b6000610a3f84828501610a06565b91505092915050565b600082825260208201905092915050565b7f456c656374696f6e206e616d6520726571756972656400000000000000000000600082015250565b6000610a8f601683610a48565b9150610a9a82610a59565b602082019050919050565b60006020820190508181036000830152610abe81610a82565b9050919050565b600081519050919050565b60005b83811015610aee578082015181840152602081019050610ad3565b60008484015250505050565b6000610b0582610ac5565b610b0f8185610a48565b9350610b1f818560208601610ad0565b610b28816106a1565b840191505092915050565b60006020820190508181036000830152610b4d8184610afa565b905092915050565b7f4e487b7100000000000000000000000000000000000000000000000000000000600052601160045260246000fd5b6000610b8f82610882565b9150610b9a83610882565b9250828203905081811115610bb257610bb1610b55565b5b92915050565b60006040820190508181036000830152610bd28185610afa565b9050610be1602083018461088c565b9392505050565b7f496e646578206f7574206f6620626f756e647300000000000000000000000000600082015250565b6000610c1e601383610a48565b9150610c2982610be8565b602082019050919050565b60006020820190508181036000830152610c4d81610c11565b9050919050565b7f4e487b7100000000000000000000000000000000000000000000000000000000600052603260045260246000fdfe608060405234801561001057600080fd5b5060405161390e38038061390e833981810160405281019061003291906103cc565b33600073ffffffffffffffffffffffffffffffffffffffff168173ffffffffffffffffffffffffffffffffffffffff16036100a55760006040517f1e4fbdf700000000000000000000000000000000000000000000000000000000815260040161009c9190610456565b60405180910390fd5b6100b48161015e60201b60201c565b5060016100d36100c861022260201b60201c565b61024d60201b60201c565b60000181905550600081511161011e576040517f08c379a0000000000000000000000000000000000000000000000000000000008152600401610115906104ce565b60405180910390fd5b806001908161012d919061070f565b5060008060146101000a81548160ff02191690836004811115610153576101526107e1565b5b021790555050610810565b60008060009054906101000a900473ffffffffffffffffffffffffffffffffffffffff169050816000806101000a81548173ffffffffffffffffffffffffffffffffffffffff021916908373ffffffffffffffffffffffffffffffffffffffff1602179055508173ffffffffffffffffffffffffffffffffffffffff168173ffffffffffffffffffffffffffffffffffffffff167f8be0079c531659141344cd1fd0a4f28419497f9722a3daafe3b4186f6b6457e060405160405180910390a35050565b60007f9b779b17422d0df92223018b32b4d1fa46e071723d6817e2486d003becc55f0060001b905090565b6000819050919050565b6000604051905090565b600080fd5b600080fd5b600080fd5b600080fd5b6000601f19601f8301169050919050565b7f4e487b7100000000000000000000000000000000000000000000000000000000600052604160045260246000fd5b6102be82610275565b810181811067ffffffffffffffff821117156102dd576102dc610286565b5b80604052505050565b60006102f0610257565b90506102fc82826102b5565b919050565b600067ffffffffffffffff82111561031c5761031b610286565b5b61032582610275565b9050602081019050919050565b60005b83811015610350578082015181840152602081019050610335565b60008484015250505050565b600061036f61036a84610301565b6102e6565b90508281526020810184848401111561038b5761038a610270565b5b610396848285610332565b509392505050565b600082601f8301126103b3576103b261026b565b5b81516103c384826020860161035c565b91505092915050565b6000602082840312156103e2576103e1610261565b5b600082015167ffffffffffffffff811115610400576103ff610266565b5b61040c8482850161039e565b91505092915050565b600073ffffffffffffffffffffffffffffffffffffffff82169050919050565b600061044082610415565b9050919050565b61045081610435565b82525050565b600060208201905061046b6000830184610447565b92915050565b600082825260208201905092915050565b7f456c656374696f6e206e616d6520726571756972656400000000000000000000600082015250565b60006104b8601683610471565b91506104c382610482565b602082019050919050565b600060208201905081810360008301526104e7816104ab565b9050919050565b600081519050919050565b7f4e487b7100000000000000000000000000000000000000000000000000000000600052602260045260246000fd5b6000600282049050600182168061054057607f821691505b602082108103610553576105526104f9565b5b50919050565b60008190508160005260206000209050919050565b60006020601f8301049050919050565b600082821b905092915050565b6000600883026105bb7fffffffffffffffffffffffffffffffffffffffffffffffffffffffffffffffff8261057e565b6105c5868361057e565b95508019841693508086168417925050509392505050565b6000819050919050565b6000819050919050565b600061060c610607610602846105dd565b6105e7565b6105dd565b9050919050565b6000819050919050565b610626836105f1565b61063a61063282610613565b84845461058b565b825550505050565b600090565b61064f610642565b61065a81848461061d565b505050565b5b8181101561067e57610673600082610647565b600181019050610660565b5050565b601f8211156106c35761069481610559565b61069d8461056e565b810160208510156106ac578190505b6106c06106b88561056e565b83018261065f565b50505b505050565b600082821c905092915050565b60006106e6600019846008026106c8565b1980831691505092915050565b60006106ff83836106d5565b9150826002028217905092915050565b610718826104ee565b67ffffffffffffffff81111561073157610730610286565b5b61073b8254610528565b610746828285610682565b600060209050601f8311600181146107795760008415610767578287015190505b61077185826106f3565b8655506107d9565b601f19841661078786610559565b60005b828110156107af5784890151825560018201915060208501945060208101905061078a565b868310156107cc57848901516107c8601f8916826106d5565b8355505b6001600288020188555050505b505050505050565b7f4e487b7100000000000000000000000000000000000000000000000000000000600052602160045260246000fd5b6130ef8061081f6000396000f3fe608060405234801561001057600080fd5b50600436106101c45760003560e01c8063715018a6116100f95780638e7ea5b211610097578063b1e2514811610071578063b1e2514814610493578063c3403ddf146104b1578063db6447ef146104bb578063f2fde38b146104d7576101c4565b80638e7ea5b214610425578063927416c014610443578063a3ec138d14610461576101c4565b8063866163c0116100d3578063866163c01461039857806386852dca146103c857806389cac540146103eb5780638da5cb5b14610407576101c4565b8063715018a61461035257806378e979251461035c57806385e8e7a71461037a576101c4565b80632d35a8a21161016657806338db6dd31161014057806338db6dd3146102f2578063462e91ec1461030e5780634717f97c1461032a5780636dc6ddce14610348576101c4565b80632d35a8a2146102835780633197cbb6146102a15780633477ee2e146102bf576101c4565b80631ec6b60a116101a25780631ec6b60a1461020d5780631f8d9fe314610217578063206137aa14610235578063265050b614610265576101c4565b80630121b93f146101c95780630d15fd77146101e557806310b8669514610203575b600080fd5b6101e360048036038101906101de9190611f02565b6104f3565b005b6101ed61082a565b6040516101fa9190611f3e565b60405180910390f35b61020b610830565b005b610215610923565b005b61021f610a63565b60405161022c9190611f3e565b60405180910390f35b61024f600480360381019061024a9190611f8f565b610a69565b60405161025c9190611fd7565b60405180910390f35b61026d610a89565b60405161027a9190612069565b60405180910390f35b61028b610a9c565b6040516102989190611f3e565b60405180910390f35b6102a9610aa2565b6040516102b69190611f3e565b60405180910390f35b6102d960048036038101906102d49190611f02565b610aa8565b6040516102e99493929190612114565b60405180910390f35b61030c600480360381019061030791906121be565b610b6d565b005b61032860048036038101906103239190612250565b610bf9565b005b610332610de4565b60405161033f9190612408565b60405180910390f35b610350610f7a565b005b61035a6111d9565b005b6103646111ed565b6040516103719190611f3e565b60405180910390f35b6103826111f3565b60405161038f919061242a565b60405180910390f35b6103b260048036038101906103ad9190611f02565b611281565b6040516103bf9190611f3e565b60405180910390f35b6103d061131f565b6040516103e29695949392919061244c565b60405180910390f35b6104056004803603810190610400919061250a565b6113e7565b005b61040f6114b7565b60405161041c9190612566565b60405180910390f35b61042d6114e0565b60405161043a91906125d1565b60405180910390f35b61044b61167e565b6040516104589190611f3e565b60405180910390f35b61047b600480360381019061047691906121be565b611684565b60405161048a939291906125f3565b60405180910390f35b61049b6116c8565b6040516104a89190611fd7565b60405180910390f35b6104b96116db565b005b6104d560048036038101906104d09190612680565b6117d5565b005b6104f160048036038101906104ec91906121be565b611a10565b005b6104fb611a96565b60028060048111156105105761050f611ff2565b5b600060149054906101000a900460ff16600481111561053257610531611ff2565b5b14610572576040517f08c379a000000000000000000000000000000000000000000000000000000000815260040161056990612740565b60405180910390fd5b600660003373ffffffffffffffffffffffffffffffffffffffff1673ffffffffffffffffffffffffffffffffffffffff16815260200190815260200160002060000160009054906101000a900460ff16610601576040517f08c379a00000000000000000000000000000000000000000000000000000000081526004016105f8906127ac565b60405180910390fd5b600660003373ffffffffffffffffffffffffffffffffffffffff1673ffffffffffffffffffffffffffffffffffffffff16815260200190815260200160002060000160019054906101000a900460ff1615610691576040517f08c379a000000000000000000000000000000000000000000000000000000000815260040161068890612818565b60405180910390fd5b6004600083815260200190815260200160002060030160009054906101000a900460ff166106f4576040517f08c379a00000000000000000000000000000000000000000000000000000000081526004016106eb90612884565b60405180910390fd5b6001600660003373ffffffffffffffffffffffffffffffffffffffff1673ffffffffffffffffffffffffffffffffffffffff16815260200190815260200160002060000160016101000a81548160ff02191690831515021790555081600660003373ffffffffffffffffffffffffffffffffffffffff1673ffffffffffffffffffffffffffffffffffffffff168152602001908152602001600020600101819055506004600083815260200190815260200160002060020160008154809291906107bd906128d3565b9190505550600860008154809291906107d5906128d3565b9190505550813373ffffffffffffffffffffffffffffffffffffffff167fa36cc2bebb74db33e9f88110a07ef56e1b31b24b4c4f51b54b1664266e29f45b60405160405180910390a350610827611ab9565b50565b60085481565b610838611ad4565b600080600481111561084d5761084c611ff2565b5b600060149054906101000a900460ff16600481111561086f5761086e611ff2565b5b146108af576040517f08c379a00000000000000000000000000000000000000000000000000000000081526004016108a690612740565b60405180910390fd5b6001600060146101000a81548160ff021916908360048111156108d5576108d4611ff2565b5b02179055507fa6dcc92f45df25789d5639b7a0c97ba1edf3bb1c0b5dd3376fd96a0db87c4642600060149054906101000a900460ff166040516109189190612069565b60405180910390a150565b61092b611ad4565b60018060048111156109405761093f611ff2565b5b600060149054906101000a900460ff16600481111561096257610961611ff2565b5b146109a2576040517f08c379a000000000000000000000000000000000000000000000000000000000815260040161099990612740565b60405180910390fd5b600260055410156109e8576040517f08c379a00000000000000000000000000000000000000000000000000000000081526004016109df90612967565b60405180910390fd5b6002600060146101000a81548160ff02191690836004811115610a0e57610a0d611ff2565b5b0217905550426002819055507fa6dcc92f45df25789d5639b7a0c97ba1edf3bb1c0b5dd3376fd96a0db87c4642600060149054906101000a900460ff16604051610a589190612069565b60405180910390a150565b60095481565b600b6020528060005260406000206000915054906101000a900460ff1681565b600060149054906101000a900460ff1681565b60055481565b60035481565b6004602052806000526040600020600091509050806000015490806001018054610ad1906129b6565b80601f0160208091040260200160405190810160405280929190818152602001828054610afd906129b6565b8015610b4a5780601f10610b1f57610100808354040283529160200191610b4a565b820191906000526020600020905b815481529060010190602001808311610b2d57829003601f168201915b5050505050908060020154908060030160009054906101000a900460ff16905084565b610b75611ad4565b6001806004811115610b8a57610b89611ff2565b5b600060149054906101000a900460ff166004811115610bac57610bab611ff2565b5b14610bec576040517f08c379a0000000000000000000000000000000000000000000000000000000008152600401610be390612740565b60405180910390fd5b610bf582611b5b565b5050565b610c01611ad4565b6001806004811115610c1657610c15611ff2565b5b600060149054906101000a900460ff166004811115610c3857610c37611ff2565b5b14610c78576040517f08c379a0000000000000000000000000000000000000000000000000000000008152600401610c6f90612740565b60405180910390fd5b60008383905011610cbe576040517f08c379a0000000000000000000000000000000000000000000000000000000008152600401610cb590612a33565b60405180910390fd5b60056000815480929190610cd1906128d3565b91905055506040518060800160405280600554815260200184848080601f016020809104026020016040519081016040528093929190818152602001838380828437600081840152601f19601f8201169050808301925050505050505081526020016000815260200160011515815250600460006005548152602001908152602001600020600082015181600001556020820151816001019081610d759190612c2e565b506040820151816002015560608201518160030160006101000a81548160ff0219169083151502179055509050506005547fe83b2a43e7e82d975c8a0a6d2f045153c869e111136a34d1889ab7b598e396a38484604051610dd7929190612d3c565b60405180910390a2505050565b6060600060055467ffffffffffffffff811115610e0457610e03612a53565b5b604051908082528060200260200182016040528015610e3d57816020015b610e2a611ea1565b815260200190600190039081610e225790505b5090506000600190505b6005548111610f7257604051806060016040528060046000848152602001908152602001600020600001548152602001600460008481526020019081526020016000206001018054610e98906129b6565b80601f0160208091040260200160405190810160405280929190818152602001828054610ec4906129b6565b8015610f115780601f10610ee657610100808354040283529160200191610f11565b820191906000526020600020905b815481529060010190602001808311610ef457829003601f168201915b50505050508152602001600460008481526020019081526020016000206002015481525082600183610f439190612d60565b81518110610f5457610f53612d94565b5b60200260200101819052508080610f6a906128d3565b915050610e47565b508091505090565b610f82611ad4565b6003806004811115610f9757610f96611ff2565b5b600060149054906101000a900460ff166004811115610fb957610fb8611ff2565b5b14610ff9576040517f08c379a0000000000000000000000000000000000000000000000000000000008152600401610ff090612740565b60405180910390fd5b6004600060146101000a81548160ff0219169083600481111561101f5761101e611ff2565b5b02179055506000806000600190505b60055481116110be57826004600083815260200190815260200160002060020154111561107e576004600082815260200190815260200160002060020154925080600981905550600191506110ab565b826004600083815260200190815260200160002060020154036110aa5781806110a6906128d3565b9250505b5b80806110b6906128d3565b91505061102e565b50600181111561111f576001600a60006101000a81548160ff0219169083151502179055507f658ab6ef4f7ecd09c5d54d628a1ddead01139c0e1967a2173f07d4f36ea6a9f4826040516111129190611f3e565b60405180910390a161118e565b6000600a60006101000a81548160ff0219169083151502179055506009547fac9b1591168829be388b71b312de9ab9615c4789287d7aaea765412f3856fb2860046000600954815260200190815260200160002060010184604051611185929190612e47565b60405180910390a25b7fa6dcc92f45df25789d5639b7a0c97ba1edf3bb1c0b5dd3376fd96a0db87c4642600060149054906101000a900460ff166040516111cc9190612069565b60405180910390a1505050565b6111e1611ad4565b6111eb6000611d33565b565b60025481565b60018054611200906129b6565b80601f016020809104026020016040519081016040528092919081815260200182805461122c906129b6565b80156112795780601f1061124e57610100808354040283529160200191611279565b820191906000526020600020905b81548152906001019060200180831161125c57829003601f168201915b505050505081565b60006001821015801561129657506005548211155b80156112c257506004600083815260200190815260200160002060030160009054906101000a900460ff165b611301576040517f08c379a00000000000000000000000000000000000000000000000000000000081526004016112f890612ec3565b60405180910390fd5b60046000838152602001908152602001600020600201549050919050565b606060008060008060006001600060149054906101000a900460ff16600754600854600254600354858054611353906129b6565b80601f016020809104026020016040519081016040528092919081815260200182805461137f906129b6565b80156113cc5780601f106113a1576101008083540402835291602001916113cc565b820191906000526020600020905b8154815290600101906020018083116113af57829003601f168201915b50505050509550955095509550955095509550909192939495565b6113ef611ad4565b600180600481111561140457611403611ff2565b5b600060149054906101000a900460ff16600481111561142657611425611ff2565b5b14611466576040517f08c379a000000000000000000000000000000000000000000000000000000000815260040161145d90612740565b60405180910390fd5b60005b838390508110156114b1576114a484848381811061148a57611489612d94565b5b905060200201602081019061149f91906121be565b611b5b565b8080600101915050611469565b50505050565b60008060009054906101000a900473ffffffffffffffffffffffffffffffffffffffff16905090565b6114e8611ea1565b60048060048111156114fd576114fc611ff2565b5b600060149054906101000a900460ff16600481111561151f5761151e611ff2565b5b1461155f576040517f08c379a000000000000000000000000000000000000000000000000000000000815260040161155690612740565b60405180910390fd5b600a60009054906101000a900460ff16156115af576040517f08c379a00000000000000000000000000000000000000000000000000000000081526004016115a690612f55565b60405180910390fd5b600060046000600954815260200190815260200160002090506040518060600160405280826000015481526020018260010180546115ec906129b6565b80601f0160208091040260200160405190810160405280929190818152602001828054611618906129b6565b80156116655780601f1061163a57610100808354040283529160200191611665565b820191906000526020600020905b81548152906001019060200180831161164857829003601f168201915b5050505050815260200182600201548152509250505090565b60075481565b60066020528060005260406000206000915090508060000160009054906101000a900460ff16908060000160019054906101000a900460ff16908060010154905083565b600a60009054906101000a900460ff1681565b6116e3611ad4565b60028060048111156116f8576116f7611ff2565b5b600060149054906101000a900460ff16600481111561171a57611719611ff2565b5b1461175a576040517f08c379a000000000000000000000000000000000000000000000000000000000815260040161175190612740565b60405180910390fd5b6003600060146101000a81548160ff021916908360048111156117805761177f611ff2565b5b0217905550426003819055507fa6dcc92f45df25789d5639b7a0c97ba1edf3bb1c0b5dd3376fd96a0db87c4642600060149054906101000a900460ff166040516117ca9190612069565b60405180910390a150565b6117dd611a96565b60028060048111156117f2576117f1611ff2565b5b600060149054906101000a900460ff16600481111561181457611813611ff2565b5b14611854576040517f08c379a000000000000000000000000000000000000000000000000000000000815260040161184b90612740565b60405180910390fd5b600b600085815260200190815260200160002060009054906101000a900460ff16156118b5576040517f08c379a00000000000000000000000000000000000000000000000000000000081526004016118ac90612fc1565b60405180910390fd5b6004600086815260200190815260200160002060030160009054906101000a900460ff16611918576040517f08c379a000000000000000000000000000000000000000000000000000000000815260040161190f90612884565b60405180910390fd5b61192483838688611df7565b611963576040517f08c379a000000000000000000000000000000000000000000000000000000000815260040161195a9061302d565b60405180910390fd5b6001600b600086815260200190815260200160002060006101000a81548160ff0219169083151502179055506004600086815260200190815260200160002060020160008154809291906119b6906128d3565b9190505550600860008154809291906119ce906128d3565b919050555084847f50ed0cb02496949d958523bef13f5798d8fef2b960c7654683793b8eb5996e7f60405160405180910390a350611a0a611ab9565b50505050565b611a18611ad4565b600073ffffffffffffffffffffffffffffffffffffffff168173ffffffffffffffffffffffffffffffffffffffff1603611a8a5760006040517f1e4fbdf7000000000000000000000000000000000000000000000000000000008152600401611a819190612566565b60405180910390fd5b611a9381611d33565b50565b611a9e611e05565b6002611ab0611aab611e46565b611e71565b60000181905550565b6001611acb611ac6611e46565b611e71565b60000181905550565b611adc611e7b565b73ffffffffffffffffffffffffffffffffffffffff16611afa6114b7565b73ffffffffffffffffffffffffffffffffffffffff1614611b5957611b1d611e7b565b6040517f118cdaa7000000000000000000000000000000000000000000000000000000008152600401611b509190612566565b60405180910390fd5b565b600073ffffffffffffffffffffffffffffffffffffffff168173ffffffffffffffffffffffffffffffffffffffff1603611bca576040517f08c379a0000000000000000000000000000000000000000000000000000000008152600401611bc190613099565b60405180910390fd5b600660008273ffffffffffffffffffffffffffffffffffffffff1673ffffffffffffffffffffffffffffffffffffffff16815260200190815260200160002060000160009054906101000a900460ff16611d30576001600660008373ffffffffffffffffffffffffffffffffffffffff1673ffffffffffffffffffffffffffffffffffffffff16815260200190815260200160002060000160006101000a81548160ff0219169083151502179055506000600660008373ffffffffffffffffffffffffffffffffffffffff1673ffffffffffffffffffffffffffffffffffffffff16815260200190815260200160002060000160016101000a81548160ff02191690831515021790555060076000815480929190611ce7906128d3565b91905055508073ffffffffffffffffffffffffffffffffffffffff167fb6be2187d059cc2a55fe29e0e503b566e1e0f8c8780096e185429350acffd3dd60405160405180910390a25b50565b60008060009054906101000a900473ffffffffffffffffffffffffffffffffffffffff169050816000806101000a81548173ffffffffffffffffffffffffffffffffffffffff021916908373ffffffffffffffffffffffffffffffffffffffff1602179055508173ffffffffffffffffffffffffffffffffffffffff168173ffffffffffffffffffffffffffffffffffffffff167f8be0079c531659141344cd1fd0a4f28419497f9722a3daafe3b4186f6b6457e060405160405180910390a35050565b600060019050949350505050565b611e0d611e83565b15611e44576040517f3ee5aeb500000000000000000000000000000000000000000000000000000000815260040160405180910390fd5b565b60007f9b779b17422d0df92223018b32b4d1fa46e071723d6817e2486d003becc55f0060001b905090565b6000819050919050565b600033905090565b60006002611e97611e92611e46565b611e71565b6000015414905090565b60405180606001604052806000815260200160608152602001600081525090565b600080fd5b600080fd5b6000819050919050565b611edf81611ecc565b8114611eea57600080fd5b50565b600081359050611efc81611ed6565b92915050565b600060208284031215611f1857611f17611ec2565b5b6000611f2684828501611eed565b91505092915050565b611f3881611ecc565b82525050565b6000602082019050611f536000830184611f2f565b92915050565b6000819050919050565b611f6c81611f59565b8114611f7757600080fd5b50565b600081359050611f8981611f63565b92915050565b600060208284031215611fa557611fa4611ec2565b5b6000611fb384828501611f7a565b91505092915050565b60008115159050919050565b611fd181611fbc565b82525050565b6000602082019050611fec6000830184611fc8565b92915050565b7f4e487b7100000000000000000000000000000000000000000000000000000000600052602160045260246000fd5b6005811061203257612031611ff2565b5b50565b600081905061204382612021565b919050565b600061205382612035565b9050919050565b61206381612048565b82525050565b600060208201905061207e600083018461205a565b92915050565b600081519050919050565b600082825260208201905092915050565b60005b838110156120be5780820151818401526020810190506120a3565b60008484015250505050565b6000601f19601f8301169050919050565b60006120e682612084565b6120f0818561208f565b93506121008185602086016120a0565b612109816120ca565b840191505092915050565b60006080820190506121296000830187611f2f565b818103602083015261213b81866120db565b905061214a6040830185611f2f565b6121576060830184611fc8565b95945050505050565b600073ffffffffffffffffffffffffffffffffffffffff82169050919050565b600061218b82612160565b9050919050565b61219b81612180565b81146121a657600080fd5b50565b6000813590506121b881612192565b92915050565b6000602082840312156121d4576121d3611ec2565b5b60006121e2848285016121a9565b91505092915050565b600080fd5b600080fd5b600080fd5b60008083601f8401126122105761220f6121eb565b5b8235905067ffffffffffffffff81111561222d5761222c6121f0565b5b602083019150836001820283011115612249576122486121f5565b5b9250929050565b6000806020838503121561226757612266611ec2565b5b600083013567ffffffffffffffff81111561228557612284611ec7565b5b612291858286016121fa565b92509250509250929050565b600081519050919050565b600082825260208201905092915050565b6000819050602082019050919050565b6122d281611ecc565b82525050565b600082825260208201905092915050565b60006122f482612084565b6122fe81856122d8565b935061230e8185602086016120a0565b612317816120ca565b840191505092915050565b600060608301600083015161233a60008601826122c9565b506020830151848203602086015261235282826122e9565b915050604083015161236760408601826122c9565b508091505092915050565b600061237e8383612322565b905092915050565b6000602082019050919050565b600061239e8261229d565b6123a881856122a8565b9350836020820285016123ba856122b9565b8060005b858110156123f657848403895281516123d78582612372565b94506123e283612386565b925060208a019950506001810190506123be565b50829750879550505050505092915050565b600060208201905081810360008301526124228184612393565b905092915050565b6000602082019050818103600083015261244481846120db565b905092915050565b600060c082019050818103600083015261246681896120db565b9050612475602083018861205a565b6124826040830187611f2f565b61248f6060830186611f2f565b61249c6080830185611f2f565b6124a960a0830184611f2f565b979650505050505050565b60008083601f8401126124ca576124c96121eb565b5b8235905067ffffffffffffffff8111156124e7576124e66121f0565b5b602083019150836020820283011115612503576125026121f5565b5b9250929050565b6000806020838503121561252157612520611ec2565b5b600083013567ffffffffffffffff81111561253f5761253e611ec7565b5b61254b858286016124b4565b92509250509250929050565b61256081612180565b82525050565b600060208201905061257b6000830184612557565b92915050565b600060608301600083015161259960008601826122c9565b50602083015184820360208601526125b182826122e9565b91505060408301516125c660408601826122c9565b508091505092915050565b600060208201905081810360008301526125eb8184612581565b905092915050565b60006060820190506126086000830186611fc8565b6126156020830185611fc8565b6126226040830184611f2f565b949350505050565b60008083601f8401126126405761263f6121eb565b5b8235905067ffffffffffffffff81111561265d5761265c6121f0565b5b602083019150836001820283011115612679576126786121f5565b5b9250929050565b6000806000806060858703121561269a57612699611ec2565b5b60006126a887828801611eed565b94505060206126b987828801611f7a565b935050604085013567ffffffffffffffff8111156126da576126d9611ec7565b5b6126e68782880161262a565b925092505092959194509250565b7f57726f6e6720706861736520666f72207468697320616374696f6e0000000000600082015250565b600061272a601b8361208f565b9150612735826126f4565b602082019050919050565b600060208201905081810360008301526127598161271d565b9050919050565b7f4e6f742061207265676973746572656420766f74657200000000000000000000600082015250565b600061279660168361208f565b91506127a182612760565b602082019050919050565b600060208201905081810360008301526127c581612789565b9050919050565b7f416c726561647920766f74656400000000000000000000000000000000000000600082015250565b6000612802600d8361208f565b915061280d826127cc565b602082019050919050565b60006020820190508181036000830152612831816127f5565b9050919050565b7f43616e64696461746520646f6573206e6f742065786973740000000000000000600082015250565b600061286e60188361208f565b915061287982612838565b602082019050919050565b6000602082019050818103600083015261289d81612861565b9050919050565b7f4e487b7100000000000000000000000000000000000000000000000000000000600052601160045260246000fd5b60006128de82611ecc565b91507fffffffffffffffffffffffffffffffffffffffffffffffffffffffffffffffff82036129105761290f6128a4565b5b600182019050919050565b7f4e656564206174206c6561737420322063616e64696461746573000000000000600082015250565b6000612951601a8361208f565b915061295c8261291b565b602082019050919050565b6000602082019050818103600083015261298081612944565b9050919050565b7f4e487b7100000000000000000000000000000000000000000000000000000000600052602260045260246000fd5b600060028204905060018216806129ce57607f821691505b6020821081036129e1576129e0612987565b5b50919050565b7f43616e646964617465206e616d65207265717569726564000000000000000000600082015250565b6000612a1d60178361208f565b9150612a28826129e7565b602082019050919050565b60006020820190508181036000830152612a4c81612a10565b9050919050565b7f4e487b7100000000000000000000000000000000000000000000000000000000600052604160045260246000fd5b60008190508160005260206000209050919050565b60006020601f8301049050919050565b600082821b905092915050565b600060088302612ae47fffffffffffffffffffffffffffffffffffffffffffffffffffffffffffffffff82612aa7565b612aee8683612aa7565b95508019841693508086168417925050509392505050565b6000819050919050565b6000612b2b612b26612b2184611ecc565b612b06565b611ecc565b9050919050565b6000819050919050565b612b4583612b10565b612b59612b5182612b32565b848454612ab4565b825550505050565b600090565b612b6e612b61565b612b79818484612b3c565b505050565b5b81811015612b9d57612b92600082612b66565b600181019050612b7f565b5050565b601f821115612be257612bb381612a82565b612bbc84612a97565b81016020851015612bcb578190505b612bdf612bd785612a97565b830182612b7e565b50505b505050565b600082821c905092915050565b6000612c0560001984600802612be7565b1980831691505092915050565b6000612c1e8383612bf4565b9150826002028217905092915050565b612c3782612084565b67ffffffffffffffff811115612c5057612c4f612a53565b5b612c5a82546129b6565b612c65828285612ba1565b600060209050601f831160018114612c985760008415612c86578287015190505b612c908582612c12565b865550612cf8565b601f198416612ca686612a82565b60005b82811015612cce57848901518255600182019150602085019450602081019050612ca9565b86831015612ceb5784890151612ce7601f891682612bf4565b8355505b6001600288020188555050505b505050505050565b82818337600083830152505050565b6000612d1b838561208f565b9350612d28838584612d00565b612d31836120ca565b840190509392505050565b60006020820190508181036000830152612d57818486612d0f565b90509392505050565b6000612d6b82611ecc565b9150612d7683611ecc565b9250828203905081811115612d8e57612d8d6128a4565b5b92915050565b7f4e487b7100000000000000000000000000000000000000000000000000000000600052603260045260246000fd5b60008154612dd0816129b6565b612dda818661208f565b94506001821660008114612df55760018114612e0b57612e3e565b60ff198316865281151560200286019350612e3e565b612e1485612a82565b60005b83811015612e3657815481890152600182019150602081019050612e17565b808801955050505b50505092915050565b60006040820190508181036000830152612e618185612dc3565b9050612e706020830184611f2f565b9392505050565b7f496e76616c69642063616e646964617465000000000000000000000000000000600082015250565b6000612ead60118361208f565b9150612eb882612e77565b602082019050919050565b60006020820190508181036000830152612edc81612ea0565b9050919050565b7f456c656374696f6e20656e64656420696e206120746965202d206e6f2073696e60008201527f676c652077696e6e657200000000000000000000000000000000000000000000602082015250565b6000612f3f602a8361208f565b9150612f4a82612ee3565b604082019050919050565b60006020820190508181036000830152612f6e81612f32565b9050919050565b7f4e756c6c696669657220616c7265616479207573656400000000000000000000600082015250565b6000612fab60168361208f565b9150612fb682612f75565b602082019050919050565b60006020820190508181036000830152612fda81612f9e565b9050919050565b7f496e76616c6964205a4b2070726f6f6600000000000000000000000000000000600082015250565b600061301760108361208f565b915061302282612fe1565b602082019050919050565b600060208201905081810360008301526130468161300a565b9050919050565b7f496e76616c696420616464726573730000000000000000000000000000000000600082015250565b6000613083600f8361208f565b915061308e8261304d565b602082019050919050565b600060208201905081810360008301526130b281613076565b905091905056fea2646970667358221220e95b9c24773c4c7696cd3dd0b63af9a8849a8ff798b390858e6cc2adc8bfc1e964736f6c634300081c0033a2646970667358221220f6230f41d9a2042b2a5a8b8cdfdb0d79023dea7d1783d8de719a23a86f94037664736f6c634300081c0033",
  "linkReferences": {},
  "deployedLinkReferences": {}
}