{
  "_format": "hh-sol-artifact-1",
  "contractName": "Verifier",
  "sourceName": "contracts/Verifier.sol",
  "abi": [
    {
      "inputs": [
        {
          "internalType": "uint256[2]",
          "name": "_pA",
          "type": "uint256[2]"
        },
        {
          "internalType": "uint256[2][2]",
          "name": "_pB",
          "type": "uint256[2][2]"
        },
        {
          "internalType": "uint256[2]",
          "name": "_pC",
          "type": "uint256[2]"
        },
        {
          "internalType": "uint256[4]",
          "name": "_pubSignals",
          "type": "uint256[4]"
        }
      ],
      "name": "verifyProof",
      "outputs": [
        {
          "internalType": "bool",
          "name": "",
          "type": "bool"
        }
      ],
      "stateMutability": "view",
      "type": "function"
    }
  ],
  "bytecode": "0x6080604052348015600f57600080fd5b506107178061001f6000396000f3fe608060405234801561001057600080fd5b506004361061002b5760003560e01c80635fe8c13b14610030575b600080fd5b61004a60048036038101906100459190610642565b610060565b60405161005791906106c6565b60405180910390f35b600061057c565b7f30644e72e131a029b85045b68181585d2833e84879b9709143e1f593f00000018110610098576000805260206000f35b50565b600060405183815284602082015285604082015260408160608360076107d05a03fa9150816100ce576000805260206000f35b825160408201526020830151606082015260408360808360066107d05a03fa9150816100fe576000805260206000f35b505050505050565b600060808601600087017f30337e39fd45c7d7b25818badc2fb9ad9fa4a719063794806f8b3de787eec1cf81527f2707f60d2fb98a85c5f26e0669a4dd558c9f8062ea6585ebacc58dc7bfa6c67360208201526101a960008801357f0b82a726bd0c80087a733c94799c3867b5370c4edd443d2602e242a2abd6d24a7f0ebd67f0db9e22a8478dcae208c59771523fbc2ec4f200a5759f174cfded5f4a8461009b565b6101f960208801357f11999aa8df6ceeaa489b61df06323dec2008f577d2e56a0dd9fcac214f37aff87f121fe2472516d578404aa6cb92134f45d82a12dd0e71f7018ed837a5055673438461009b565b61024960408801357f27822f6fd6a389e96eff4805c35d95a989acddc12b8b98fb875d7f041f8c81b97f0bc907ed7322f216650a83585aae0189f11405d20467875d74f0cf91952eb0248461009b565b61029860608801357e19ae49bfe6817c2026aedf9635f40ad9a55c4cd71c5b7f9426a1f69dff1f9c7f28fa15e904dac0d498866a95e854eb69dc768bab2fc3f7569e0d601f5aed5b088461009b565b833582527f30644e72e131a029b85045b68181585d97816a916871ca8d3c208c16d87cfd4760208501357f30644e72e131a029b85045b68181585d97816a916871ca8d3c208c16d87cfd4703066020830152843560408301526020850135606083015260408501356080830152606085013560a08301527f217630762ea1fc4043118e98b124571deb4fa9156b8543b21116f37bfdc3f31960c08301527f1e6453f66982c8718fc1b12c6ada1b31ea2b9462ea541d8c1123cae957dade6760e08301527f041458e554b8fcafc9448133be9a10f04d0722fe81bf22be002c2350b8b11fbf6101008301527f1ca8f9f60039077a66e52a07bc2ada4499d276348cfec9091a4fd19f73dad8eb6101208301527f1d77a130899875009feaf60faf3297dd650cff2bd32a2a1707edce01b80ec7526101408301527f023bc5cfea30f112bcc43ca85e72d967f2f93b2142c546c4bb15eae91033e976610160830152600088015161018083015260206000018801516101a08301527f198e9393920d483a7260bfb731fb5d25f1aa493335a9e71297e485b7aef312c26101c08301527f1800deef121f1e76426a00665e5c4479674322d4f75edadd46debd5cd992f6ed6101e08301527f090689d0585ff075ec9e99ad690c3395bc4b313370b38ef355acdadcd122975b6102008301527f12c85ea5db8c6deb4aab71808dcb408fe3d1e7690c43d37b4ce6cc0166fa7daa610220830152853561024083015260208601356102608301527f0d4e04da63740fd1d1e493f18f6bd0621b1fdd33ede67725710dc0a0354638af6102808301527f1c794b4312db86f0cb75846db023933e240e208792a97a2f349272c93f135ee96102a08301527f0cceaf50f6f0d3a38f54f63d36ca952b8d4ace1f6c383119dc32488eb9622eac6102c08301527f27df9e522ac3537521add2dc9ee2fa75c439e2fdb29b340844595a58dfebfc2b6102e08301526020826103008460086107d05a03fa82518116935050505095945050505050565b60405161038081016040526105946000840135610067565b6105a16020840135610067565b6105ae6040840135610067565b6105bb6060840135610067565b6105c8818486888a610106565b8060005260206000f35b600080fd5b600080fd5b6000819050826020600202820111156105f8576105f76105d7565b5b92915050565b60008190508260406002028201111561061a576106196105d7565b5b92915050565b60008190508260206004028201111561063c5761063b6105d7565b5b92915050565b600080600080610180858703121561065d5761065c6105d2565b5b600061066b878288016105dc565b945050604061067c878288016105fe565b93505060c061068d878288016105dc565b92505061010061069f87828801610620565b91505092959194509250565b60008115159050919050565b6106c0816106ab565b82525050565b60006020820190506106db60008301846106b7565b9291505056fea2646970667358221220e583d20e70c9d75778c406c29daef3added0c68723f33a701e0f0edadf49eecb64736f6c634300081c0033",
  "linkReferences": {},
  "deployedLinkReferences": {}
}