{
  "_format": "hh-sol-artifact-1",
  "contractName": "Election",
  "sourceName": "contracts/Election.sol",
  "abi": [
    {
      "inputs": [
        {
          "internalType": "string",
          "name": "_name",
          "type": "string"
        },
        {
          "internalType": "address",
          "name": "_verifierAddress",
          "type": "address"
        }
      ],
      "stateMutability": "nonpayable",
      "type": "constructor"
    },
    {
      "inputs": [
        {
          "internalType": "address",
          "name": "owner",
          "type": "address"
        }
      ],
      "name": "OwnableInvalidOwner",
      "type": "error"
    },
    {
      "inputs": [
        {
          "internalType": "address",
          "name": "account",
          "type": "address"
        }
      ],
      "name": "OwnableUnauthorizedAccount",
      "type": "error"
    },
    {
      "inputs": [],
      "name": "ReentrancyGuardReentrantCall",
      "type": "error"
    },
    {
      "anonymous": false,
      "inputs": [
        {
          "indexed": true,
          "internalType": "uint256",
          "name": "id",
          "type": "uint256"
        },
        {
          "indexed": false,
          "internalType": "string",
          "name": "name",
          "type": "string"
        }
      ],
      "name": "CandidateAdded",
      "type": "event"
    },
    {
      "anonymous": false,
      "inputs": [
        {
          "indexed": true,
          "internalType": "address",
          "name": "previousOwner",
          "type": "address"
        },
        {
          "indexed": true,
          "internalType": "address",
          "name": "newOwner",
          "type": "address"
        }
      ],
      "name": "OwnershipTransferred",
      "type": "event"
    },
    {
      "anonymous": false,
      "inputs": [
        {
          "indexed": false,
          "internalType": "enum Election.Phase",
          "name": "newPhase",
          "type": "uint8"
        }
      ],
      "name": "PhaseChanged",
      "type": "event"
    },
    {
      "anonymous": false,
      "inputs": [
        {
          "indexed": false,
          "internalType": "uint256",
          "name": "topVoteCount",
          "type": "uint256"
        }
      ],
      "name": "TieDeclared",
      "type": "event"
    },
    {
      "anonymous": false,
      "inputs": [
        {
          "indexed": true,
          "internalType": "address",
          "name": "voter",
          "type": "address"
        },
        {
          "indexed": true,
          "internalType": "uint256",
          "name": "candidateId",
          "type": "uint256"
        }
      ],
      "name": "VoteCast",
      "type": "event"
    },
    {
      "anonymous": false,
      "inputs": [
        {
          "indexed": true,
          "internalType": "bytes32",
          "name": "nullifier",
          "type": "bytes32"
        },
        {
          "indexed": true,
          "internalType": "uint256",
          "name": "candidateId",
          "type": "uint256"
        }
      ],
      "name": "VoteCastWithProof",
      "type": "event"
    },
    {
      "anonymous": false,
      "inputs": [
        {
          "indexed": true,
          "internalType": "address",
          "name": "voter",
          "type": "address"
        }
      ],
      "name": "VoterRegistered",
      "type": "event"
    },
    {
      "anonymous": false,
      "inputs": [
        {
          "indexed": true,
          "internalType": "uint256",
          "name": "candidateId",
          "type": "uint256"
        },
        {
          "indexed": false,
          "internalType": "string",
          "name": "name",
          "type": "string"
        },
        {
          "indexed": false,
          "internalType": "uint256",
          "name": "voteCount",
          "type": "uint256"
        }
      ],
      "name": "WinnerDeclared",
      "type": "event"
    },
    {
      "inputs": [
        {
          "internalType": "string",
          "name": "_name",
          "type": "string"
        }
      ],
      "name": "addCandidate",
      "outputs": [],
      "stateMutability": "nonpayable",
      "type": "function"
    },
    {
      "inputs": [
        {
          "internalType": "address[]",
          "name": "_voters",
          "type": "address[]"
        }
      ],
      "name": "batchRegisterVoters",
      "outputs": [],
      "stateMutability": "nonpayable",
      "type": "function"
    },
    {
      "inputs": [
        {
          "internalType": "uint256",
          "name": "",
          "type": "uint256"
        }
      ],
      "name": "candidates",
      "outputs": [
        {
          "internalType": "uint256",
          "name": "id",
          "type": "uint256"
        },
        {
          "internalType": "string",
          "name": "name",
          "type": "string"
        },
        {
          "internalType": "uint256",
          "name": "voteCount",
          "type": "uint256"
        },
        {
          "internalType": "bool",
          "name": "exists",
          "type": "bool"
        }
      ],
      "stateMutability": "view",
      "type": "function"
    },
    {
      "inputs": [],
      "name": "candidatesCount",
      "outputs": [
        {
          "internalType": "uint256",
          "name": "",
          "type": "uint256"
        }
      ],
      "stateMutability": "view",
      "type": "function"
    },
    {
      "inputs": [],
      "name": "electionName",
      "outputs": [
        {
          "internalType": "string",
          "name": "",
          "type": "string"
        }
      ],
      "stateMutability": "view",
      "type": "function"
    },
    {
      "inputs": [],
      "name": "electionPhase",
      "outputs": [
        {
          "internalType": "enum Election.Phase",
          "name": "",
          "type": "uint8"
        }
      ],
      "stateMutability": "view",
      "type": "function"
    },
    {
      "inputs": [],
      "name": "endTime",
      "outputs": [
        {
          "internalType": "uint256",
          "name": "",
          "type": "uint256"
        }
      ],
      "stateMutability": "view",
      "type": "function"
    },
    {
      "inputs": [],
      "name": "endVoting",
      "outputs": [],
      "stateMutability": "nonpayable",
      "type": "function"
    },
    {
      "inputs": [
        {
          "internalType": "uint256",
          "name": "_candidateId",
          "type": "uint256"
        }
      ],
      "name": "getCandidateVotes",
      "outputs": [
        {
          "internalType": "uint256",
          "name": "",
          "type": "uint256"
        }
      ],
      "stateMutability": "view",
      "type": "function"
    },
    {
      "inputs": [],
      "name": "getElectionInfo",
      "outputs": [
        {
          "internalType": "string",
          "name": "name",
          "type": "string"
        },
        {
          "internalType": "enum Election.Phase",
          "name": "phase",
          "type": "uint8"
        },
        {
          "internalType": "uint256",
          "name": "registered",
          "type": "uint256"
        },
        {
          "internalType": "uint256",
          "name": "votes",
          "type": "uint256"
        },
        {
          "internalType": "uint256",
          "name": "start",
          "type": "uint256"
        },
        {
          "internalType": "uint256",
          "name": "end",
          "type": "uint256"
        }
      ],
      "stateMutability": "view",
      "type": "function"
    },
    {
      "inputs": [],
      "name": "getResults",
      "outputs": [
        {
          "components": [
            {
              "internalType": "uint256",
              "name": "id",
              "type": "uint256"
            },
            {
              "internalType": "string",
              "name": "name",
              "type": "string"
            },
            {
              "internalType": "uint256",
              "name": "voteCount",
              "type": "uint256"
            }
          ],
          "internalType": "struct Election.CandidateResult[]",
          "name": "",
          "type": "tuple[]"
        }
      ],
      "stateMutability": "view",
      "type": "function"
    },
    {
      "inputs": [],
      "name": "getWinner",
      "outputs": [
        {
          "components": [
            {
              "internalType": "uint256",
              "name": "id",
              "type": "uint256"
            },
            {
              "internalType": "string",
              "name": "name",
              "type": "string"
            },
            {
              "internalType": "uint256",
              "name": "voteCount",
              "type": "uint256"
            }
          ],
          "internalType": "struct Election.CandidateResult",
          "name": "",
          "type": "tuple"
        }
      ],
      "stateMutability": "view",
      "type": "function"
    },
    {
      "inputs": [],
      "name": "isTie",
      "outputs": [
        {
          "internalType": "bool",
          "name": "",
          "type": "bool"
        }
      ],
      "stateMutability": "view",
      "type": "function"
    },
    {
      "inputs": [],
      "name": "merkleRoot",
      "outputs": [
        {
          "internalType": "bytes32",
          "name": "",
          "type": "bytes32"
        }
      ],
      "stateMutability": "view",
      "type": "function"
    },
    {
      "inputs": [],
      "name": "owner",
      "outputs": [
        {
          "internalType": "address",
          "name": "",
          "type": "address"
        }
      ],
      "stateMutability": "view",
      "type": "function"
    },
    {
      "inputs": [
        {
          "internalType": "address",
          "name": "_voter",
          "type": "address"
        }
      ],
      "name": "registerVoter",
      "outputs": [],
      "stateMutability": "nonpayable",
      "type": "function"
    },
    {
      "inputs": [],
      "name": "renounceOwnership",
      "outputs": [],
      "stateMutability": "nonpayable",
      "type": "function"
    },
    {
      "inputs": [
        {
          "internalType": "bytes32",
          "name": "_merkleRoot",
          "type": "bytes32"
        }
      ],
      "name": "setMerkleRoot",
      "outputs": [],
      "stateMutability": "nonpayable",
      "type": "function"
    },
    {
      "inputs": [],
      "name": "startRegistration",
      "outputs": [],
      "stateMutability": "nonpayable",
      "type": "function"
    },
    {
      "inputs": [],
      "name": "startTally",
      "outputs": [],
      "stateMutability": "nonpayable",
      "type": "function"
    },
    {
      "inputs": [],
      "name": "startTime",
      "outputs": [
        {
          "internalType": "uint256",
          "name": "",
          "type": "uint256"
        }
      ],
      "stateMutability": "view",
      "type": "function"
    },
    {
      "inputs": [],
      "name": "startVoting",
      "outputs": [],
      "stateMutability": "nonpayable",
      "type": "function"
    },
    {
      "inputs": [
        {
          "internalType": "uint256",
          "name": "_candidateId",
          "type": "uint256"
        },
        {
          "internalType": "bytes32",
          "name": "_nullifier",
          "type": "bytes32"
        },
        {
          "internalType": "uint256[2]",
          "name": "a",
          "type": "uint256[2]"
        },
        {
          "internalType": "uint256[2][2]",
          "name": "b",
          "type": "uint256[2][2]"
        },
        {
          "internalType": "uint256[2]",
          "name": "c",
          "type": "uint256[2]"
        }
      ],
      "name": "submitVoteWithProof",
      "outputs": [],
      "stateMutability": "nonpayable",
      "type": "function"
    },
    {
      "inputs": [],
      "name": "totalRegistered",
      "outputs": [
        {
          "internalType": "uint256",
          "name": "",
          "type": "uint256"
        }
      ],
      "stateMutability": "view",
      "type": "function"
    },
    {
      "inputs": [],
      "name": "totalVotes",
      "outputs": [
        {
          "internalType": "uint256",
          "name": "",
          "type": "uint256"
        }
      ],
      "stateMutability": "view",
      "type": "function"
    },
    {
      "inputs": [
        {
          "internalType": "address",
          "name": "newOwner",
          "type": "address"
        }
      ],
      "name": "transferOwnership",
      "outputs": [],
      "stateMutability": "nonpayable",
      "type": "function"
    },
    {
      "inputs": [
        {
          "internalType": "bytes32",
          "name": "",
          "type": "bytes32"
        }
      ],
      "name": "usedNullifiers",
      "outputs": [
        {
          "internalType": "bool",
          "name": "",
          "type": "bool"
        }
      ],
      "stateMutability": "view",
      "type": "function"
    },
    {
      "inputs": [],
      "name": "verifier",
      "outputs": [
        {
          "internalType": "contract IVerifier",
          "name": "",
          "type": "address"
        }
      ],
      "stateMutability": "view",
      "type": "function"
    },
    {
      "inputs": [
        {
          "internalType": "uint256",
          "name": "_candidateId",
          "type": "uint256"
        }
      ],
      "name": "vote",
      "outputs": [],
      "stateMutability": "nonpayable",
      "type": "function"
    },
    {
      "inputs": [
        {
          "internalType": "address",
          "name": "",
          "type": "address"
        }
      ],
      "name": "voters",
      "outputs": [
        {
          "internalType": "bool",
          "name": "isRegistered",
          "type": "bool"
        },
        {
          "internalType": "bool",
          "name": "hasVoted",
          "type": "bool"
        },
        {
          "internalType": "uint256",
          "name": "selectedCandidateId",
          "type": "uint256"
        }
      ],
      "stateMutability": "view",
      "type": "function"
    },
    {
      "inputs": [],
      "name": "winnerCandidateId",
      "outputs": [
        {
          "internalType": "uint256",
          "name": "",
          "type": "uint256"
        }
      ],
      "stateMutability": "view",
      "type": "function"
    }
  ],
  "bytecode": "0x608060405234801561001057600080fd5b5060405161405b38038061405b833981810160405281019061003291906104db565b33600073ffffffffffffffffffffffffffffffffffffffff168173ffffffffffffffffffffffffffffffffffffffff16036100a55760006040517f1e4fbdf700000000000000000000000000000000000000000000000000000000815260040161009c9190610546565b60405180910390fd5b6100b48161020f60201b60201c565b5060016100d36100c86102d360201b60201c565b6102fe60201b60201c565b60000181905550600082511161011e576040517f08c379a0000000000000000000000000000000000000000000000000000000008152600401610115906105be565b60405180910390fd5b600073ffffffffffffffffffffffffffffffffffffffff168173ffffffffffffffffffffffffffffffffffffffff160361018d576040517f08c379a00000000000000000000000000000000000000000000000000000000081526004016101849061062a565b60405180910390fd5b80600c60006101000a81548173ffffffffffffffffffffffffffffffffffffffff021916908373ffffffffffffffffffffffffffffffffffffffff16021790555081600190816101dd919061086b565b5060008060146101000a81548160ff021916908360048111156102035761020261093d565b5b0217905550505061096c565b60008060009054906101000a900473ffffffffffffffffffffffffffffffffffffffff169050816000806101000a81548173ffffffffffffffffffffffffffffffffffffffff021916908373ffffffffffffffffffffffffffffffffffffffff1602179055508173ffffffffffffffffffffffffffffffffffffffff168173ffffffffffffffffffffffffffffffffffffffff167f8be0079c531659141344cd1fd0a4f28419497f9722a3daafe3b4186f6b6457e060405160405180910390a35050565b60007f9b779b17422d0df92223018b32b4d1fa46e071723d6817e2486d003becc55f0060001b905090565b6000819050919050565b6000604051905090565b600080fd5b600080fd5b600080fd5b600080fd5b6000601f19601f8301169050919050565b7f4e487b7100000000000000000000000000000000000000000000000000000000600052604160045260246000fd5b61036f82610326565b810181811067ffffffffffffffff8211171561038e5761038d610337565b5b80604052505050565b60006103a1610308565b90506103ad8282610366565b919050565b600067ffffffffffffffff8211156103cd576103cc610337565b5b6103d682610326565b9050602081019050919050565b60005b838110156104015780820151818401526020810190506103e6565b60008484015250505050565b600061042061041b846103b2565b610397565b90508281526020810184848401111561043c5761043b610321565b5b6104478482856103e3565b509392505050565b600082601f8301126104645761046361031c565b5b815161047484826020860161040d565b91505092915050565b600073ffffffffffffffffffffffffffffffffffffffff82169050919050565b60006104a88261047d565b9050919050565b6104b88161049d565b81146104c357600080fd5b50565b6000815190506104d5816104af565b92915050565b600080604083850312156104f2576104f1610312565b5b600083015167ffffffffffffffff8111156105105761050f610317565b5b61051c8582860161044f565b925050602061052d858286016104c6565b9150509250929050565b6105408161049d565b82525050565b600060208201905061055b6000830184610537565b92915050565b600082825260208201905092915050565b7f456c656374696f6e206e616d6520726571756972656400000000000000000000600082015250565b60006105a8601683610561565b91506105b382610572565b602082019050919050565b600060208201905081810360008301526105d78161059b565b9050919050565b7f5665726966696572206164647265737320726571756972656400000000000000600082015250565b6000610614601983610561565b915061061f826105de565b602082019050919050565b6000602082019050818103600083015261064381610607565b9050919050565b600081519050919050565b7f4e487b7100000000000000000000000000000000000000000000000000000000600052602260045260246000fd5b6000600282049050600182168061069c57607f821691505b6020821081036106af576106ae610655565b5b50919050565b60008190508160005260206000209050919050565b60006020601f8301049050919050565b600082821b905092915050565b6000600883026107177fffffffffffffffffffffffffffffffffffffffffffffffffffffffffffffffff826106da565b61072186836106da565b95508019841693508086168417925050509392505050565b6000819050919050565b6000819050919050565b600061076861076361075e84610739565b610743565b610739565b9050919050565b6000819050919050565b6107828361074d565b61079661078e8261076f565b8484546106e7565b825550505050565b600090565b6107ab61079e565b6107b6818484610779565b505050565b5b818110156107da576107cf6000826107a3565b6001810190506107bc565b5050565b601f82111561081f576107f0816106b5565b6107f9846106ca565b81016020851015610808578190505b61081c610814856106ca565b8301826107bb565b50505b505050565b600082821c905092915050565b600061084260001984600802610824565b1980831691505092915050565b600061085b8383610831565b9150826002028217905092915050565b6108748261064a565b67ffffffffffffffff81111561088d5761088c610337565b5b6108978254610684565b6108a28282856107de565b600060209050601f8311600181146108d557600084156108c3578287015190505b6108cd858261084f565b865550610935565b601f1984166108e3866106b5565b60005b8281101561090b578489015182556001820191506020850194506020810190506108e6565b868310156109285784890151610924601f891682610831565b8355505b6001600288020188555050505b505050505050565b7f4e487b7100000000000000000000000000000000000000000000000000000000600052602160045260246000fd5b6136e08061097b6000396000f3fe608060405234801561001057600080fd5b50600436106101e55760003560e01c80634717f97c1161010f57806389cac540116100a2578063a3ec138d11610071578063a3ec138d146104f6578063b1e2514814610528578063c3403ddf14610546578063f2fde38b14610550576101e5565b806389cac540146104805780638da5cb5b1461049c5780638e7ea5b2146104ba578063927416c0146104d8576101e5565b80637cb64759116100de5780637cb64759146103f357806385e8e7a71461040f578063866163c01461042d57806386852dca1461045d576101e5565b80634717f97c146103a35780636dc6ddce146103c1578063715018a6146103cb57806378e97925146103d5576101e5565b80632b7ac3f3116101875780633477ee2e116101565780633477ee2e1461031c57806335e9ba011461034f57806338db6dd31461036b578063462e91ec14610387576101e5565b80632b7ac3f3146102a45780632d35a8a2146102c25780632eb4a7ab146102e05780633197cbb6146102fe576101e5565b80631ec6b60a116101c35780631ec6b60a1461022e5780631f8d9fe314610238578063206137aa14610256578063265050b614610286576101e5565b80630121b93f146101ea5780630d15fd771461020657806310b8669514610224575b600080fd5b61020460048036038101906101ff9190612176565b61056c565b005b61020e6108a3565b60405161021b91906121b2565b60405180910390f35b61022c6108a9565b005b61023661099c565b005b610240610adc565b60405161024d91906121b2565b60405180910390f35b610270600480360381019061026b9190612203565b610ae2565b60405161027d919061224b565b60405180910390f35b61028e610b02565b60405161029b91906122dd565b60405180910390f35b6102ac610b15565b6040516102b99190612377565b60405180910390f35b6102ca610b3b565b6040516102d791906121b2565b60405180910390f35b6102e8610b41565b6040516102f591906123a1565b60405180910390f35b610306610b47565b60405161031391906121b2565b60405180910390f35b61033660048036038101906103319190612176565b610b4d565b604051610346949392919061244c565b60405180910390f35b610369600480360381019061036491906124e1565b610c12565b005b6103856004803603810190610380919061259c565b610f5b565b005b6103a1600480360381019061039c9190612629565b610fe7565b005b6103ab6111d2565b6040516103b891906127e1565b60405180910390f35b6103c9611368565b005b6103d36115c7565b005b6103dd6115db565b6040516103ea91906121b2565b60405180910390f35b61040d60048036038101906104089190612203565b6115e1565b005b6104176116b0565b6040516104249190612803565b60405180910390f35b61044760048036038101906104429190612176565b61173e565b60405161045491906121b2565b60405180910390f35b6104656117dc565b60405161047796959493929190612825565b60405180910390f35b61049a600480360381019061049591906128e3565b6118a4565b005b6104a4611974565b6040516104b1919061293f565b60405180910390f35b6104c261199d565b6040516104cf91906129aa565b60405180910390f35b6104e0611b3b565b6040516104ed91906121b2565b60405180910390f35b610510600480360381019061050b919061259c565b611b41565b60405161051f939291906129cc565b60405180910390f35b610530611b85565b60405161053d919061224b565b60405180910390f35b61054e611b98565b005b61056a6004803603810190610565919061259c565b611c92565b005b610574611d18565b600280600481111561058957610588612266565b5b600060149054906101000a900460ff1660048111156105ab576105aa612266565b5b146105eb576040517f08c379a00000000000000000000000000000000000000000000000000000000081526004016105e290612a4f565b60405180910390fd5b600660003373ffffffffffffffffffffffffffffffffffffffff1673ffffffffffffffffffffffffffffffffffffffff16815260200190815260200160002060000160009054906101000a900460ff1661067a576040517f08c379a000000000000000000000000000000000000000000000000000000000815260040161067190612abb565b60405180910390fd5b600660003373ffffffffffffffffffffffffffffffffffffffff1673ffffffffffffffffffffffffffffffffffffffff16815260200190815260200160002060000160019054906101000a900460ff161561070a576040517f08c379a000000000000000000000000000000000000000000000000000000000815260040161070190612b27565b60405180910390fd5b6004600083815260200190815260200160002060030160009054906101000a900460ff1661076d576040517f08c379a000000000000000000000000000000000000000000000000000000000815260040161076490612b93565b60405180910390fd5b6001600660003373ffffffffffffffffffffffffffffffffffffffff1673ffffffffffffffffffffffffffffffffffffffff16815260200190815260200160002060000160016101000a81548160ff02191690831515021790555081600660003373ffffffffffffffffffffffffffffffffffffffff1673ffffffffffffffffffffffffffffffffffffffff1681526020019081526020016000206001018190555060046000838152602001908152602001600020600201600081548092919061083690612be2565b91905055506008600081548092919061084e90612be2565b9190505550813373ffffffffffffffffffffffffffffffffffffffff167fa36cc2bebb74db33e9f88110a07ef56e1b31b24b4c4f51b54b1664266e29f45b60405160405180910390a3506108a0611d3b565b50565b60085481565b6108b1611d56565b60008060048111156108c6576108c5612266565b5b600060149054906101000a900460ff1660048111156108e8576108e7612266565b5b14610928576040517f08c379a000000000000000000000000000000000000000000000000000000000815260040161091f90612a4f565b60405180910390fd5b6001600060146101000a81548160ff0219169083600481111561094e5761094d612266565b5b02179055507fa6dcc92f45df25789d5639b7a0c97ba1edf3bb1c0b5dd3376fd96a0db87c4642600060149054906101000a900460ff1660405161099191906122dd565b60405180910390a150565b6109a4611d56565b60018060048111156109b9576109b8612266565b5b600060149054906101000a900460ff1660048111156109db576109da612266565b5b14610a1b576040517f08c379a0000000000000000000000000000000000000000000000000000000008152600401610a1290612a4f565b60405180910390fd5b60026005541015610a61576040517f08c379a0000000000000000000000000000000000000000000000000000000008152600401610a5890612c76565b60405180910390fd5b6002600060146101000a81548160ff02191690836004811115610a8757610a86612266565b5b0217905550426002819055507fa6dcc92f45df25789d5639b7a0c97ba1edf3bb1c0b5dd3376fd96a0db87c4642600060149054906101000a900460ff16604051610ad191906122dd565b60405180910390a150565b60095481565b600b6020528060005260406000206000915054906101000a900460ff1681565b600060149054906101000a900460ff1681565b600c60009054906101000a900473ffffffffffffffffffffffffffffffffffffffff1681565b60055481565b600d5481565b60035481565b6004602052806000526040600020600091509050806000015490806001018054610b7690612cc5565b80601f0160208091040260200160405190810160405280929190818152602001828054610ba290612cc5565b8015610bef5780601f10610bc457610100808354040283529160200191610bef565b820191906000526020600020905b815481529060010190602001808311610bd257829003601f168201915b5050505050908060020154908060030160009054906101000a900460ff16905084565b610c1a611d18565b6002806004811115610c2f57610c2e612266565b5b600060149054906101000a900460ff166004811115610c5157610c50612266565b5b14610c91576040517f08c379a0000000000000000000000000000000000000000000000000000000008152600401610c8890612a4f565b60405180910390fd5b600b600086815260200190815260200160002060009054906101000a900460ff1615610cf2576040517f08c379a0000000000000000000000000000000000000000000000000000000008152600401610ce990612d42565b60405180910390fd5b6004600087815260200190815260200160002060030160009054906101000a900460ff16610d55576040517f08c379a0000000000000000000000000000000000000000000000000000000008152600401610d4c90612b93565b60405180910390fd5b6000801b600d5403610d9c576040517f08c379a0000000000000000000000000000000000000000000000000000000008152600401610d9390612dae565b60405180910390fd5b60006040518060800160405280600d5460001c81526020018760001c81526020018881526020016005548152509050600c60009054906101000a900473ffffffffffffffffffffffffffffffffffffffff1673ffffffffffffffffffffffffffffffffffffffff16635fe8c13b868686856040518563ffffffff1660e01b8152600401610e2c9493929190612f42565b602060405180830381865afa158015610e49573d6000803e3d6000fd5b505050506040513d601f19601f82011682018060405250810190610e6d9190612fb5565b610eac576040517f08c379a0000000000000000000000000000000000000000000000000000000008152600401610ea39061302e565b60405180910390fd5b6001600b600088815260200190815260200160002060006101000a81548160ff021916908315150217905550600460008881526020019081526020016000206002016000815480929190610eff90612be2565b919050555060086000815480929190610f1790612be2565b919050555086867f50ed0cb02496949d958523bef13f5798d8fef2b960c7654683793b8eb5996e7f60405160405180910390a35050610f54611d3b565b5050505050565b610f63611d56565b6001806004811115610f7857610f77612266565b5b600060149054906101000a900460ff166004811115610f9a57610f99612266565b5b14610fda576040517f08c379a0000000000000000000000000000000000000000000000000000000008152600401610fd190612a4f565b60405180910390fd5b610fe382611ddd565b5050565b610fef611d56565b600180600481111561100457611003612266565b5b600060149054906101000a900460ff16600481111561102657611025612266565b5b14611066576040517f08c379a000000000000000000000000000000000000000000000000000000000815260040161105d90612a4f565b60405180910390fd5b600083839050116110ac576040517f08c379a00000000000000000000000000000000000000000000000000000000081526004016110a39061309a565b60405180910390fd5b600560008154809291906110bf90612be2565b91905055506040518060800160405280600554815260200184848080601f016020809104026020016040519081016040528093929190818152602001838380828437600081840152601f19601f8201169050808301925050505050505081526020016000815260200160011515815250600460006005548152602001908152602001600020600082015181600001556020820151816001019081611163919061328b565b506040820151816002015560608201518160030160006101000a81548160ff0219169083151502179055509050506005547fe83b2a43e7e82d975c8a0a6d2f045153c869e111136a34d1889ab7b598e396a384846040516111c5929190613399565b60405180910390a2505050565b6060600060055467ffffffffffffffff8111156111f2576111f16130ba565b5b60405190808252806020026020018201604052801561122b57816020015b611218612115565b8152602001906001900390816112105790505b5090506000600190505b60055481116113605760405180606001604052806004600084815260200190815260200160002060000154815260200160046000848152602001908152602001600020600101805461128690612cc5565b80601f01602080910402602001604051908101604052809291908181526020018280546112b290612cc5565b80156112ff5780601f106112d4576101008083540402835291602001916112ff565b820191906000526020600020905b8154815290600101906020018083116112e257829003601f168201915b5050505050815260200160046000848152602001908152602001600020600201548152508260018361133191906133bd565b81518110611342576113416133f1565b5b6020026020010181905250808061135890612be2565b915050611235565b508091505090565b611370611d56565b600380600481111561138557611384612266565b5b600060149054906101000a900460ff1660048111156113a7576113a6612266565b5b146113e7576040517f08c379a00000000000000000000000000000000000000000000000000000000081526004016113de90612a4f565b60405180910390fd5b6004600060146101000a81548160ff0219169083600481111561140d5761140c612266565b5b02179055506000806000600190505b60055481116114ac57826004600083815260200190815260200160002060020154111561146c57600460008281526020019081526020016000206002015492508060098190555060019150611499565b8260046000838152602001908152602001600020600201540361149857818061149490612be2565b9250505b5b80806114a490612be2565b91505061141c565b50600181111561150d576001600a60006101000a81548160ff0219169083151502179055507f658ab6ef4f7ecd09c5d54d628a1ddead01139c0e1967a2173f07d4f36ea6a9f48260405161150091906121b2565b60405180910390a161157c565b6000600a60006101000a81548160ff0219169083151502179055506009547fac9b1591168829be388b71b312de9ab9615c4789287d7aaea765412f3856fb28600460006009548152602001908152602001600020600101846040516115739291906134a4565b60405180910390a25b7fa6dcc92f45df25789d5639b7a0c97ba1edf3bb1c0b5dd3376fd96a0db87c4642600060149054906101000a900460ff166040516115ba91906122dd565b60405180910390a1505050565b6115cf611d56565b6115d96000611fb5565b565b60025481565b6115e9611d56565b60018060048111156115fe576115fd612266565b5b600060149054906101000a900460ff1660048111156116205761161f612266565b5b14611660576040517f08c379a000000000000000000000000000000000000000000000000000000000815260040161165790612a4f565b60405180910390fd5b6000801b82036116a5576040517f08c379a000000000000000000000000000000000000000000000000000000000815260040161169c90613520565b60405180910390fd5b81600d819055505050565b600180546116bd90612cc5565b80601f01602080910402602001604051908101604052809291908181526020018280546116e990612cc5565b80156117365780601f1061170b57610100808354040283529160200191611736565b820191906000526020600020905b81548152906001019060200180831161171957829003601f168201915b505050505081565b60006001821015801561175357506005548211155b801561177f57506004600083815260200190815260200160002060030160009054906101000a900460ff165b6117be576040517f08c379a00000000000000000000000000000000000000000000000000000000081526004016117b59061358c565b60405180910390fd5b60046000838152602001908152602001600020600201549050919050565b606060008060008060006001600060149054906101000a900460ff1660075460085460025460035485805461181090612cc5565b80601f016020809104026020016040519081016040528092919081815260200182805461183c90612cc5565b80156118895780601f1061185e57610100808354040283529160200191611889565b820191906000526020600020905b81548152906001019060200180831161186c57829003601f168201915b50505050509550955095509550955095509550909192939495565b6118ac611d56565b60018060048111156118c1576118c0612266565b5b600060149054906101000a900460ff1660048111156118e3576118e2612266565b5b14611923576040517f08c379a000000000000000000000000000000000000000000000000000000000815260040161191a90612a4f565b60405180910390fd5b60005b8383905081101561196e57611961848483818110611947576119466133f1565b5b905060200201602081019061195c919061259c565b611ddd565b8080600101915050611926565b50505050565b60008060009054906101000a900473ffffffffffffffffffffffffffffffffffffffff16905090565b6119a5612115565b60048060048111156119ba576119b9612266565b5b600060149054906101000a900460ff1660048111156119dc576119db612266565b5b14611a1c576040517f08c379a0000000000000000000000000000000000000000000000000000000008152600401611a1390612a4f565b60405180910390fd5b600a60009054906101000a900460ff1615611a6c576040517f08c379a0000000000000000000000000000000000000000000000000000000008152600401611a639061361e565b60405180910390fd5b60006004600060095481526020019081526020016000209050604051806060016040528082600001548152602001826001018054611aa990612cc5565b80601f0160208091040260200160405190810160405280929190818152602001828054611ad590612cc5565b8015611b225780601f10611af757610100808354040283529160200191611b22565b820191906000526020600020905b815481529060010190602001808311611b0557829003601f168201915b5050505050815260200182600201548152509250505090565b60075481565b60066020528060005260406000206000915090508060000160009054906101000a900460ff16908060000160019054906101000a900460ff16908060010154905083565b600a60009054906101000a900460ff1681565b611ba0611d56565b6002806004811115611bb557611bb4612266565b5b600060149054906101000a900460ff166004811115611bd757611bd6612266565b5b14611c17576040517f08c379a0000000000000000000000000000000000000000000000000000000008152600401611c0e90612a4f565b60405180910390fd5b6003600060146101000a81548160ff02191690836004811115611c3d57611c3c612266565b5b0217905550426003819055507fa6dcc92f45df25789d5639b7a0c97ba1edf3bb1c0b5dd3376fd96a0db87c4642600060149054906101000a900460ff16604051611c8791906122dd565b60405180910390a150565b611c9a611d56565b600073ffffffffffffffffffffffffffffffffffffffff168173ffffffffffffffffffffffffffffffffffffffff1603611d0c5760006040517f1e4fbdf7000000000000000000000000000000000000000000000000000000008152600401611d03919061293f565b60405180910390fd5b611d1581611fb5565b50565b611d20612079565b6002611d32611d2d6120ba565b6120e5565b60000181905550565b6001611d4d611d486120ba565b6120e5565b60000181905550565b611d5e6120ef565b73ffffffffffffffffffffffffffffffffffffffff16611d7c611974565b73ffffffffffffffffffffffffffffffffffffffff1614611ddb57611d9f6120ef565b6040517f118cdaa7000000000000000000000000000000000000000000000000000000008152600401611dd2919061293f565b60405180910390fd5b565b600073ffffffffffffffffffffffffffffffffffffffff168173ffffffffffffffffffffffffffffffffffffffff1603611e4c576040517f08c379a0000000000000000000000000000000000000000000000000000000008152600401611e439061368a565b60405180910390fd5b600660008273ffffffffffffffffffffffffffffffffffffffff1673ffffffffffffffffffffffffffffffffffffffff16815260200190815260200160002060000160009054906101000a900460ff16611fb2576001600660008373ffffffffffffffffffffffffffffffffffffffff1673ffffffffffffffffffffffffffffffffffffffff16815260200190815260200160002060000160006101000a81548160ff0219169083151502179055506000600660008373ffffffffffffffffffffffffffffffffffffffff1673ffffffffffffffffffffffffffffffffffffffff16815260200190815260200160002060000160016101000a81548160ff02191690831515021790555060076000815480929190611f6990612be2565b91905055508073ffffffffffffffffffffffffffffffffffffffff167fb6be2187d059cc2a55fe29e0e503b566e1e0f8c8780096e185429350acffd3dd60405160405180910390a25b50565b60008060009054906101000a900473ffffffffffffffffffffffffffffffffffffffff169050816000806101000a81548173ffffffffffffffffffffffffffffffffffffffff021916908373ffffffffffffffffffffffffffffffffffffffff1602179055508173ffffffffffffffffffffffffffffffffffffffff168173ffffffffffffffffffffffffffffffffffffffff167f8be0079c531659141344cd1fd0a4f28419497f9722a3daafe3b4186f6b6457e060405160405180910390a35050565b6120816120f7565b156120b8576040517f3ee5aeb500000000000000000000000000000000000000000000000000000000815260040160405180910390fd5b565b60007f9b779b17422d0df92223018b32b4d1fa46e071723d6817e2486d003becc55f0060001b905090565b6000819050919050565b600033905090565b6000600261210b6121066120ba565b6120e5565b6000015414905090565b60405180606001604052806000815260200160608152602001600081525090565b600080fd5b600080fd5b6000819050919050565b61215381612140565b811461215e57600080fd5b50565b6000813590506121708161214a565b92915050565b60006020828403121561218c5761218b612136565b5b600061219a84828501612161565b91505092915050565b6121ac81612140565b82525050565b60006020820190506121c760008301846121a3565b92915050565b6000819050919050565b6121e0816121cd565b81146121eb57600080fd5b50565b6000813590506121fd816121d7565b92915050565b60006020828403121561221957612218612136565b5b6000612227848285016121ee565b91505092915050565b60008115159050919050565b61224581612230565b82525050565b6000602082019050612260600083018461223c565b92915050565b7f4e487b7100000000000000000000000000000000000000000000000000000000600052602160045260246000fd5b600581106122a6576122a5612266565b5b50565b60008190506122b782612295565b919050565b60006122c7826122a9565b9050919050565b6122d7816122bc565b82525050565b60006020820190506122f260008301846122ce565b92915050565b600073ffffffffffffffffffffffffffffffffffffffff82169050919050565b6000819050919050565b600061233d612338612333846122f8565b612318565b6122f8565b9050919050565b600061234f82612322565b9050919050565b600061236182612344565b9050919050565b61237181612356565b82525050565b600060208201905061238c6000830184612368565b92915050565b61239b816121cd565b82525050565b60006020820190506123b66000830184612392565b92915050565b600081519050919050565b600082825260208201905092915050565b60005b838110156123f65780820151818401526020810190506123db565b60008484015250505050565b6000601f19601f8301169050919050565b600061241e826123bc565b61242881856123c7565b93506124388185602086016123d8565b61244181612402565b840191505092915050565b600060808201905061246160008301876121a3565b81810360208301526124738186612413565b905061248260408301856121a3565b61248f606083018461223c565b95945050505050565b600080fd5b6000819050826020600202820111156124b9576124b8612498565b5b92915050565b6000819050826040600202820111156124db576124da612498565b5b92915050565b600080600080600061014086880312156124fe576124fd612136565b5b600061250c88828901612161565b955050602061251d888289016121ee565b945050604061252e8882890161249d565b935050608061253f888289016124bf565b9250506101006125518882890161249d565b9150509295509295909350565b6000612569826122f8565b9050919050565b6125798161255e565b811461258457600080fd5b50565b60008135905061259681612570565b92915050565b6000602082840312156125b2576125b1612136565b5b60006125c084828501612587565b91505092915050565b600080fd5b600080fd5b60008083601f8401126125e9576125e86125c9565b5b8235905067ffffffffffffffff811115612606576126056125ce565b5b60208301915083600182028301111561262257612621612498565b5b9250929050565b600080602083850312156126405761263f612136565b5b600083013567ffffffffffffffff81111561265e5761265d61213b565b5b61266a858286016125d3565b92509250509250929050565b600081519050919050565b600082825260208201905092915050565b6000819050602082019050919050565b6126ab81612140565b82525050565b600082825260208201905092915050565b60006126cd826123bc565b6126d781856126b1565b93506126e78185602086016123d8565b6126f081612402565b840191505092915050565b600060608301600083015161271360008601826126a2565b506020830151848203602086015261272b82826126c2565b915050604083015161274060408601826126a2565b508091505092915050565b600061275783836126fb565b905092915050565b6000602082019050919050565b600061277782612676565b6127818185612681565b93508360208202850161279385612692565b8060005b858110156127cf57848403895281516127b0858261274b565b94506127bb8361275f565b925060208a01995050600181019050612797565b50829750879550505050505092915050565b600060208201905081810360008301526127fb818461276c565b905092915050565b6000602082019050818103600083015261281d8184612413565b905092915050565b600060c082019050818103600083015261283f8189612413565b905061284e60208301886122ce565b61285b60408301876121a3565b61286860608301866121a3565b61287560808301856121a3565b61288260a08301846121a3565b979650505050505050565b60008083601f8401126128a3576128a26125c9565b5b8235905067ffffffffffffffff8111156128c0576128bf6125ce565b5b6020830191508360208202830111156128dc576128db612498565b5b9250929050565b600080602083850312156128fa576128f9612136565b5b600083013567ffffffffffffffff8111156129185761291761213b565b5b6129248582860161288d565b92509250509250929050565b6129398161255e565b82525050565b60006020820190506129546000830184612930565b92915050565b600060608301600083015161297260008601826126a2565b506020830151848203602086015261298a82826126c2565b915050604083015161299f60408601826126a2565b508091505092915050565b600060208201905081810360008301526129c4818461295a565b905092915050565b60006060820190506129e1600083018661223c565b6129ee602083018561223c565b6129fb60408301846121a3565b949350505050565b7f57726f6e6720706861736520666f72207468697320616374696f6e0000000000600082015250565b6000612a39601b836123c7565b9150612a4482612a03565b602082019050919050565b60006020820190508181036000830152612a6881612a2c565b9050919050565b7f4e6f742061207265676973746572656420766f74657200000000000000000000600082015250565b6000612aa56016836123c7565b9150612ab082612a6f565b602082019050919050565b60006020820190508181036000830152612ad481612a98565b9050919050565b7f416c726561647920766f74656400000000000000000000000000000000000000600082015250565b6000612b11600d836123c7565b9150612b1c82612adb565b602082019050919050565b60006020820190508181036000830152612b4081612b04565b9050919050565b7f43616e64696461746520646f6573206e6f742065786973740000000000000000600082015250565b6000612b7d6018836123c7565b9150612b8882612b47565b602082019050919050565b60006020820190508181036000830152612bac81612b70565b9050919050565b7f4e487b7100000000000000000000000000000000000000000000000000000000600052601160045260246000fd5b6000612bed82612140565b91507fffffffffffffffffffffffffffffffffffffffffffffffffffffffffffffffff8203612c1f57612c1e612bb3565b5b600182019050919050565b7f4e656564206174206c6561737420322063616e64696461746573000000000000600082015250565b6000612c60601a836123c7565b9150612c6b82612c2a565b602082019050919050565b60006020820190508181036000830152612c8f81612c53565b9050919050565b7f4e487b7100000000000000000000000000000000000000000000000000000000600052602260045260246000fd5b60006002820490506001821680612cdd57607f821691505b602082108103612cf057612cef612c96565b5b50919050565b7f4e756c6c696669657220616c7265616479207573656400000000000000000000600082015250565b6000612d2c6016836123c7565b9150612d3782612cf6565b602082019050919050565b60006020820190508181036000830152612d5b81612d1f565b9050919050565b7f4d65726b6c6520726f6f74206e6f742073657400000000000000000000000000600082015250565b6000612d986013836123c7565b9150612da382612d62565b602082019050919050565b60006020820190508181036000830152612dc781612d8b565b9050919050565b82818337505050565b612de360408383612dce565b5050565b600060029050919050565b600081905092915050565b6000819050919050565b612e1360408383612dce565b5050565b6000612e238383612e07565b60408301905092915050565b600082905092915050565b6000604082019050919050565b612e5081612de7565b612e5a8184612df2565b9250612e6582612dfd565b8060005b83811015612e9e57612e7b8284612e2f565b612e858782612e17565b9650612e9083612e3a565b925050600181019050612e69565b505050505050565b600060049050919050565b600081905092915050565b6000819050919050565b6000612ed283836126a2565b60208301905092915050565b6000602082019050919050565b612ef481612ea6565b612efe8184612eb1565b9250612f0982612ebc565b8060005b83811015612f3a578151612f218782612ec6565b9650612f2c83612ede565b925050600181019050612f0d565b505050505050565b600061018082019050612f586000830187612dd7565b612f656040830186612e47565b612f7260c0830185612dd7565b612f80610100830184612eeb565b95945050505050565b612f9281612230565b8114612f9d57600080fd5b50565b600081519050612faf81612f89565b92915050565b600060208284031215612fcb57612fca612136565b5b6000612fd984828501612fa0565b91505092915050565b7f496e76616c6964205a4b2070726f6f6600000000000000000000000000000000600082015250565b60006130186010836123c7565b915061302382612fe2565b602082019050919050565b600060208201905081810360008301526130478161300b565b9050919050565b7f43616e646964617465206e616d65207265717569726564000000000000000000600082015250565b60006130846017836123c7565b915061308f8261304e565b602082019050919050565b600060208201905081810360008301526130b381613077565b9050919050565b7f4e487b7100000000000000000000000000000000000000000000000000000000600052604160045260246000fd5b60008190508160005260206000209050919050565b60006020601f8301049050919050565b600082821b905092915050565b60006008830261314b7fffffffffffffffffffffffffffffffffffffffffffffffffffffffffffffffff8261310e565b613155868361310e565b95508019841693508086168417925050509392505050565b600061318861318361317e84612140565b612318565b612140565b9050919050565b6000819050919050565b6131a28361316d565b6131b66131ae8261318f565b84845461311b565b825550505050565b600090565b6131cb6131be565b6131d6818484613199565b505050565b5b818110156131fa576131ef6000826131c3565b6001810190506131dc565b5050565b601f82111561323f57613210816130e9565b613219846130fe565b81016020851015613228578190505b61323c613234856130fe565b8301826131db565b50505b505050565b600082821c905092915050565b600061326260001984600802613244565b1980831691505092915050565b600061327b8383613251565b9150826002028217905092915050565b613294826123bc565b67ffffffffffffffff8111156132ad576132ac6130ba565b5b6132b78254612cc5565b6132c28282856131fe565b600060209050601f8311600181146132f557600084156132e3578287015190505b6132ed858261326f565b865550613355565b601f198416613303866130e9565b60005b8281101561332b57848901518255600182019150602085019450602081019050613306565b868310156133485784890151613344601f891682613251565b8355505b6001600288020188555050505b505050505050565b82818337600083830152505050565b600061337883856123c7565b935061338583858461335d565b61338e83612402565b840190509392505050565b600060208201905081810360008301526133b481848661336c565b90509392505050565b60006133c882612140565b91506133d383612140565b92508282039050818111156133eb576133ea612bb3565b5b92915050565b7f4e487b7100000000000000000000000000000000000000000000000000000000600052603260045260246000fd5b6000815461342d81612cc5565b61343781866123c7565b9450600182166000811461345257600181146134685761349b565b60ff19831686528115156020028601935061349b565b613471856130e9565b60005b8381101561349357815481890152600182019150602081019050613474565b808801955050505b50505092915050565b600060408201905081810360008301526134be8185613420565b90506134cd60208301846121a3565b9392505050565b7f496e76616c6964206d65726b6c6520726f6f7400000000000000000000000000600082015250565b600061350a6013836123c7565b9150613515826134d4565b602082019050919050565b60006020820190508181036000830152613539816134fd565b9050919050565b7f496e76616c69642063616e646964617465000000000000000000000000000000600082015250565b60006135766011836123c7565b915061358182613540565b602082019050919050565b600060208201905081810360008301526135a581613569565b9050919050565b7f456c656374696f6e20656e64656420696e206120746965202d206e6f2073696e60008201527f676c652077696e6e657200000000000000000000000000000000000000000000602082015250565b6000613608602a836123c7565b9150613613826135ac565b604082019050919050565b60006020820190508181036000830152613637816135fb565b9050919050565b7f496e76616c696420616464726573730000000000000000000000000000000000600082015250565b6000613674600f836123c7565b915061367f8261363e565b602082019050919050565b600060208201905081810360008301526136a381613667565b905091905056fea26469706673582212206f491090c4a7a9ff32ec7b89cd35a44783a275f35b06971d09520f6d2403feca64736f6c634300081c0033",
  "linkReferences": {},
  "deployedLinkReferences": {}
}